:4019000022EF0DF0FFFFFFFF0CEF42F0FFFFFFFFFFFFFFFFFFFFFFFFD8CF02F0E8CF03F0E0CF04F0F2A001D001D00BD0F2A601D001D007D081508150F290F29602017B8DBF
:4019400071D09EA001D001D01AD09DA001D001D016D09E90020170516F11D8B401D001D003D06F07D8A0700764516311D8B401D001D058D06307D8A0640754D053D0A4A068
:4019800001D001D00BD0A3A001D001D007D0A49000014E8A010E70EC65F044D0BAA201D001D02DD0B9A201D001D029D0BA920201B551020AD8B401D001D006D0B551120A95
:4019C000D8A401D001D005D0FE0E7D6E990E7C6E03D0C00E7D6E7C6A7A517911D8B401D001D003D07907D8A07A076E516D11D8B401D001D017D06D07D8A06E0713D0BAA635
:401A000001D001D006D0B9A601D001D002D0BA9609D09EAC01D001D0B1D79DAC01D001D0ADD79E9C9EA801D001D005D09DA801D001D001D09E9804C0E0FF03C0E8FF02C05B
:401A4000D8FF1000A1EF66F01000110013001500170019001C001F002200250029002D00320037003C00420049005000580061006B00760082008F009D00AD00BE00D10044
:401A8000E600FD0017013301510173019801C101EE01200256029202D4021C036C03C30324048E04020583051006FFFFFFFF02040608FFFFFFFF0204060800803F72313F8F
:401AC000FE753E58633D951D3CC5AE3A79213994803793A73556153400000000803FF0FFBEE2A93E8376BEAE2B3E3CC3BDD2133D78D3BB4C61736572204F66662043757213
:401B000072656E74004C61736572204F6E2043757272656E740050726F78696D697479204F66667365740041726520796F7520737572650054656D706572617475726500B7
:401B40004445534352495054494F4E00427574746F6E2F4C454400414443204F46465345540053656E642048455800426174746572790053756363657373004368617267CA
:401B80006500524553554C540053544154555300417564696F004550524F4D00436F7265004641494C005041535300446F6E6500544553540041434B004E414B0045727214
:401BC000000028412A2A2A2A2A205741524E494E472021212120204552415345532043414C5320414E4420464C414753202A2A2A2A2A2A005B455D20457261736520416C35
:401C00006C2043616C6962726174696F6E732C2053746174732C20616E6420466C616773002A2A2A2A2A205741524E494E4720212121202045524153455320414C4C20456A
:401C40004550524F4D202A2A2A2A2A2A00205448455241444F4D45204C48383020202D2020434F4D4D414E44204D454E55202A2A2A2A2A2A2A2A2A00205448455241444F2E
:401C80004D45204C48383020202D2020424F4152442054455354202A2A2A2A2A2A2A2A2A00494E543109494E54330950494531200950494532095049453309504945340995
:401CC000504945350950494536002A2A2A2A2A20454550524F4D20434F4D504C4554454C5920455241534544202A2A2A2A2A2A0045524153454420414C4C20434F554E5496
:401D00004552532C2043414C532C20414E4420464C414753005072657373205B3F5D20666F72204D656E752E2E2E5B4553435D20746F204578697400456E746572204368BB
:401D4000617267652054696D656F757420696E20486F757273202D20005B505D2050726F78696D69747920446961676E6F7374696320446973706C6179005757202D2030C5
:401D8000303D53756E6461792E2E30363D536174757264617920202D2000456E7465722052656D696E64657220416C61726D20696E2044617973202D2000456E74657220D5
:401DC0006F72205363616E2053657269616C204E756D626572202D20005B585D2042617474657279202F2054656D7065726174757265205465737400456E7465722044615C
:401E0000746520617320595959592D4D4D2D44442D57572020004D7573742062652061206E756D626572206C657373207468616E203132005B445D20446973706C617920C9
:401E4000454550524F4D20506172616D6574657273004D7573742062652061206E756D626572206C657373207468616E2037005B4C5D2041646A75737420427574746F6E88
:401E800020436F6C6F72204C45447300456E7465722054656D7065726174757265202843656C7369757329005B575D20446973706C61792046697273742057617665204660
:401EC000696C65005B655D2045726173652054726561746D656E7420436F756E746572002054524541544D454E545320434F4D504C45544544204C4F4720005B535D204432
:401F000065657020536C656570202853686970204D6F646529005B615D20446973706C617920416C61726D2053657474696E6773005B5A5D2041646A757374204C617365D5
:401F40007220496E74656E7369747900456E7465722054696D652061732048483A4D4D3A5353202D20005B745D20446973706C6179204461746520616E642054696D6500D4
:401F800050524F4455435420434F4445205245564953494F4E202D200020202020204D656173757265642043757272656E74203D200057726974652F526561642F56657261
:401FC00069667920307836333336004552415345442054524541544D454E5420434F554E544552005B6E5D2044697361626C65204275726E2D496E204D6F64650055504711
:402000005241444520494E5354414C4C2044415445202D2000464143544F525920494E5354414C4C2044415445202D2000424F4F54204C4F41444552205245564953494F5C
:402040004E202D20005B4E5D20456E61626C65204275726E2D496E204D6F6465005B565D20566965772054726561746D656E74204C6F6700507265737320427574746F6E70
:4020800020746F205265746573740043414C4942524154494F4E20434F4E5354414E5453005B545D20536574204461746520616E642054696D650043757272656E74204145
:4020C0006C61726D20536574202D20005B435D2043616C6962726174696F6E204D6F646500426F6F7420446964204E6F7420496E7374616C6C002020202020536574204317
:40210000757272656E74203D20005B4553435D204578697420434F4D204D6F6465005B245D2052756E20446961676E6F73746963730043414C2054454D50455241545552CF
:4021400045202D2000494E544552525550545320454E41424C454400456E7465722050617373776F7264202D2000564F494345205245564953494F4E202D20004C617365AD
:40218000722043757272656E74286D4129005B625D2044697361626C6520416C61726D0041726520596F752053757265203F20200053455249414C204E554D424552202DE7
:4021C0002000456E7465722050617373776F72643A20004275726E20496E2044697361626C6564005B425D20456E61626C6520416C61726D004469766964657220537465CD
:4022000070203D200057202D204252494748545F545249470051202D204252494748545F434E5453004275726E20496E20456E61626C6564004F70657261746F722050612D
:40224000737365640054454D5045524154555245203D20005452494747455220434E54203D20004552524F5220434F554E5445525300416C61726D2044697361626C65640C
:40228000005B415D2053657420416C61726D7300436C697020496E646578203D200053202D20524541442F534156450052202D204441524B5F545249470045202D20444155
:4022C000524B5F434E545300416C61726D20456E61626C6564005465737420427970617373656400416C61726D205772697474656E0054696D652052656164202D20004421
:402300006174652052656164202D2000576176652044617461203D2000436C69702050616765203D2000436C69702053697A65203D2000507265737320427574746F6E00A5
:402340005265766973696F6E202D200042415454455259203D2000414320415647203D2000444320415647203D2000414320434E54203D2000444320434E54203D20004DAC
:40238000464720464C4147530054657374204D6F6465004C41534552203D200044495341424C4544004368617267696E670044617465205365740054494D45203D200043B6
:4023C0004F5245203D200054656D7028432900436861726765640042617474657279003D524544202000416C61726D20003D475245454E004572726F7200656173790044B4
:40240000617465005745440054554500465249004E414B0041434B004D4F4E0053554E00455252005341540054485500444F570030780023002E005600000F0EE9EC4FF0FE
:40244000000ED8EC68F0000ECAEC6EF00201BB6B436AC0EF28F0040EF5EC5AF0050EF5EC5AF0010E0001666F0A0E0FEC6EF0010E0001666F0D0E0FEC6EF0F3C266F02A0E06
:402480000FEC6EF0010E0001666F0A0E0FEC6EF0010E0001666F0D0E0FEC6EF00A0E0001666F2A0E0FEC6EF01C0E00017F6F780E7E6FDBEC66F0010E0001666F0A0E0FECF4
:4024C0006EF0010E0001666F0D0E0FEC6EF01D0E00017F6F150E7E6FDBEC66F0010E0001666F0A0E0FEC6EF0010E0001666F0D0E0FEC6EF02AEF28F00001C16B1F0EC06F75
:40250000000EC36BC26B67EC6BF00001C16B1E0EC06F000EC36BC26B67EC6BF0220E00017F6F250E7E6FDBEC66F0010E0001666F0A0E0FEC6EF0010E0001666F0D0E0FEC38
:402540006EF091EF28F0E1EC32F067EC6BF0210E00017F6FD30E7E6FDBEC66F0010E0001666F0A0E0FEC6EF0010E0001666F0D0E0FEC6EF091EF28F0C8EC3CF091EF28F000
:40258000030E0001E06F100EDF6F3CEC45F091EF28F0000EF5EC5AF0190E0001666F200E0FEC6EF0070EF5EC5AF0190E0001666F200E0FEC6EF0070EF5EC5AF0190E000170
:4025C000666F200E0FEC6EF0070EF5EC5AF0190E0001666F200E0FEC6EF0070EF5EC5AF0190E0001666F200E0FEC6EF0070EF5EC5AF0040EF5EC5AF0050EF5EC5AF0010E2D
:40260000FCEC6CF005EC42F087EC5FF0010E6FEC64F0030ED8EC68F0FAD00D0E10EC29F0030EA0EC3AF08D9E8B94000EF5EC5AF04EB606D0000E0001D96BD86B81EC49F02C
:40264000230E00017F6F4C0E7E6FDBEC66F0D0C2D2F0D1C2D3F0D2C2D4F053EC5CF0010E0001666F090E0FEC6EF0000EF5EC5AF0000E0001DC6BDB6BA6EC3EF0220E00012E
:402680007F6F450E7E6FDBEC66F0DCC2D2F0DDC2D3F0DEC2D4F053EC5CF0010E0001666F090E0FEC6EF0230E00017F6FBF0E7E6FDBEC66F0000E0001D96BD86BDBEC56F02F
:4026C000D3C2D2F0D4C2D3F0D5C2D4F053EC5CF0010E0001666F090E0FEC6EF0000EF5EC5AF0230E00017F6F930E7E6FDBEC66F0FAEC28F0000E0001DB6BDD6BDC6B83EC9A
:4027000047F0D6C2D2F0D7C2D3F0D8C2D4F053EC5CF0010E0001666F090E0FEC6EF0000EF5EC5AF0230E00017F6FB70E7E6FDBEC66F0DFEC6CF0030E0001676F100E666F44
:4027400014EC67F0030E00017F6F100E7E6FDBEC66F0010E0001666F090E0FEC6EF0010E0001666F0A0E0FEC6EF0010E0001666F0D0E0FEC6EF07BAF1AD00001F351020A71
:4027800003E0F351050A13E102017BA109D00001C06BA80EC16F410EC26F87EC5FF004D0DAEC32F087EC5FF0010EFCEC6CF09EAA2DD0A8EC6EF0436E20D04E8627D04E964B
:4027C00025D0020E0001B26FD00EB16FCD0EB36F4C0EB46F3D0EB56F67EC6CF017D0020E0001796FD00E786FCD0E7A6F4C0E7B6F3D0E7C6FA3EC6CF009D043502B0AE1E0EC
:40280000060AEDE0600AD9E0200AD9E003000001F351030A03E081B880A8FFD6000EF5EC5AF0000EFCEC6CF0AEEC32F087EC5FF0000ED8EC68F091EF28F0000EF5EC5AF043
:40284000140E0001666F200E0FEC6EF0070EF5EC5AF0140E0001666F200E0FEC6EF0070EF5EC5AF0140E0001666F200E0FEC6EF0070EF5EC5AF0140E0001666F200E0FECFA
:402880006EF0070EF5EC5AF0140E0001666F200E0FEC6EF0070EF5EC5AF0020E26EC4EF0010E26EC4EF0010EFCEC6CF005EC42F087EC5FF00301406B7F0E416F430E426FD6
:4028C0003A6B7F0E3B6F430E3C6F020ED8EC68F073D3040EF5EC5AF0050EF5EC5AF0010EF5EC5AF0220E00017F6F150E7E6FDBEC66F0010E0001666F090E0FEC6EF0220E08
:4029000000017F6F050E7E6FDBEC66F0020E0001666F090E0FEC6EF0220E00017F6FBA0E7E6FDBEC66F0010E0001666F090E0FEC6EF0220E00017F6FAC0E7E6FDBEC66F00C
:40294000010E0001666F090E0FEC6EF0220E00017F6F9E0E7E6FDBEC66F0010E0001666F0D0E0FEC6EF0010E0001666F0A0E0FEC6EF0000EF5EC5AF050C0D2F051C0D3F09F
:4029800052C0D4F053EC5CF0020E0001666F090E0FEC6EF053C0D2F054C0D3F055C0D4F053EC5CF0020E0001666F090E0FEC6EF056C0D2F057C0D3F058C0D4F053EC5CF0E1
:4029C000010E0001666F090E0FEC6EF059C0D2F05AC0D3F05BC0D4F053EC5CF0010E0001666F0D0E0FEC6EF0010E0001666F0A0E0FEC6EF0050E0F01366FBA98B988B9B8E5
:402A0000FED733C072F034C073F035C074F029C275F02AC276F02BC277F0CDEC6DF072C037F373C038F374C039F3000EF5EC5AF0230E00017F6F750E7E6FDBEC66F079EC4B
:402A400029F040C375F041C376F042C377F033C072F034C073F035C074F0CDEC6DF072C07BF073C07CF074C07DF07FEC68F003E2030EF5EC5AF033C0D2F034C0D3F035C0C2
:402A8000D4F053EC5CF0010E0001666F090E0FEC6EF0000EF5EC5AF0230E00017F6F610E7E6FDBEC66F033C0A3F034C0A4F035C0A5F040C3A0F041C3A1F042C3A2F067ECF6
:402AC00055F046EC29F0E2EC5BF078C040F379C041F37AC042F340C3D2F041C3D3F042C3D4F053EC5CF0010E0001666F090E0FEC6EF0230E00017F6F6B0E7E6FDBEC66F00E
:402B000079EC29F03AC375F03BC376F03CC377F037C372F038C373F039C374F0CDEC6DF072C07BF073C07CF074C07DF07FEC68F01CE3786B480E796F420E7A6F37C375F063
:402B400038C376F039C377F03AC372F03BC373F03CC374F0CDEC6DF072C07BF073C07CF074C07DF07FEC68F003E2030EF5EC5AF037C3D2F038C3D3F039C3D4F053EC5CF0D2
:402B8000010E0001666F090E0FEC6EF0000EF5EC5AF0230E00017F6F570E7E6FDBEC66F037C3A3F038C3A4F039C3A5F03AC3A0F03BC3A1F03CC3A2F067EC55F046EC29F0BB
:402BC000E2EC5BF078C03AF379C03BF37AC03CF33AC3D2F03BC3D3F03CC3D4F053EC5CF0010E0001666F090E0FEC6EF0220E00017F6F540E7E6FDBEC66F056C078F057C044
:402C000079F058C07AF040C37BF041C37CF042C37DF07FEC68F053E240C392F041C393F042C394F050C075F051C076F052C077F056C072F057C073F058C074F0CDEC6DF0E3
:402C400072C07BF073C07CF074C07DF053C075F054C076F055C077F059C072F05AC073F05BC074F0CDEC6DF072C078F073C079F074C07AF0E2EC5BF078C08FF079C090F01F
:402C80007AC091F078EC5AF08FC030F390C031F391C032F330C3A0F031C3A1F032C3A2F059C0A3F05AC0A4F05BC0A5F067EC55F0A0C033F3A1C034F3A2C035F306D059C097
:402CC00033F35AC034F35BC035F33AC378F03BC379F03CC37AF033C37BF034C37CF035C37DF07FEC68F012E240C378F041C379F042C37AF050C07BF051C07CF052C07DF057
:402D00007FEC68F003E2030EF5EC5AF033C3D2F034C3D3F035C3D4F053EC5CF00A0E0001666F200E0FEC6EF0010E0001666F0D0E0FEC6EF0030E0001666F0A0E0FEC6EF0D0
:402D4000000EF5EC5AF0210E00017F6F450E7E6FDBEC66F0010E0001666F0D0E0FEC6EF0010E0001666F0A0E0FEC6EF01C0E00017F6FA10E7E6FDBEC66F0010E0001666F39
:402D80000D0E0FEC6EF0010E0001666F0A0E0FEC6EF0F250380B0001806F816B24EC6EF0010E0001666F090E0FEC6EF0F050380B0001806F816B24EC6EF0010E0001666F73
:402DC000090E0FEC6EF000019DCF80F0816B24EC6EF0020E0001666F090E0FEC6EF00001A0CF80F0816B24EC6EF0010E0001666F090E0FEC6EF00001A3CF80F0816B24EC68
:402E00006EF0010E0001666F090E0FEC6EF00001B6CF80F0816B24EC6EF0010E0001666F090E0FEC6EF00001B9CF80F0816B24EC6EF0010E0001666F090E0FEC6EF0000191
:402E400060CF80F0816B24EC6EF0010E0001666F090E0FEC6EF0010E0001666F0D0E0FEC6EF0010E0001666F0A0E0FEC6EF07BAFA0D00001F351020A01E09BD002017BA1FF
:402E800009D00001C06BA80EC16F410EC26F87EC5FF004D0DAEC32F087EC5FF0010EFCEC6CF087D0A8EC6EF0436E6ED0500E0001B16F000E25EC29F0480EB46F420EB56F38
:402EC00067EC6CF076D0500E0001786F000E2DEC29F0480E7B6F420E7C6FA3EC6CF069D0530E0001B16F000E25EC29F0200EB46F410EB56F67EC6CF05CD0530E0001786F16
:402F0000000E2DEC29F0200E7B6F410E7C6FA3EC6CF04FD0560E0001B16F000E25EC29F0480EB46F420EB56F67EC6CF042D0560E0001786F000E2DEC29F0480E7B6F420E6E
:402F40007C6FA3EC6CF035D0590E0001B16F000E25EC29F0200EB46F410EB56F67EC6CF028D0590E0001786F000E2DEC29F0200E7B6F410E7C6FA3EC6CF01BD06EEC61F0E9
:402F800018D094EC62F015D04350450AC3E0140A8DE0030AD9E0010AF4E0040AA1E0320AC6E0140A90E0030ADCE0010AE7E0040AA4E09EBA77D703000001F351030A03E0B3
:402FC00081B880A886D4000EF5EC5AF0000E26EC4EF0000EFCEC6CF0AEEC32F087EC5FF0000ED8EC68F091EF28F00301456B010E0001666F0A0E0FEC6EF0010E0001666FFE
:403000000D0E0FEC6EF022D0220E00017F6F630E7E6FDBEC66F0426A0B0E15D0200E00017F6F8B0E7E6FDBEC66F0140E426E190E0AD0230E00017F6F7F0E7E6FDBEC66F09C
:40304000190E426E200E0201A66F07D003014551DBE0010AE3E0030AECE0010E0001666F0A0E0FEC6EF0010E0001666F0D0E0FEC6EF0010E0001666F0A0E0FEC6EF0020E4B
:403080000301456134D042C043F32BD0000143C380F0816B24EC6EF0020E0001666F200E0FEC6EF0000143C366F0676BFCEC69F0000166C038F067C039F038C080F039C081
:4030C00081F024EC6EF0010E0001666F0D0E0FEC6EF0010E0001666F0A0E0FEC6EF00301432B0201A6510301435D7CE2CFD742C043F373D0030E496E100E486E000143C310
:4031000080F0816B24EC6EF0020E0001666F200E0FEC6EF0240E00017F6F300E7E6FDBEC66F0000143C366F0676BFCEC69F0000166C038F067C039F038C0E6F039C0E7F042
:403140000C0EE86FE735E733E633E82FFBD7E6510F0B67EC6FF048C0D9FF49C0DAFFDF6E484A492A39500F0B67EC6FF048C0D9FF49C0DAFFDF6E484A492A38380F0B67EC49
:403180006FF048C0D9FF49C0DAFFDF6E484A492A38500F0B67EC6FF048C0D9FF49C0DAFFDF6E484A492A48C0D9FF49C0DAFFDF6A030E00017F6F100E7E6FDBEC66F0010EF2
:4031C0000001666F0D0E0FEC6EF0010E0001666F0A0E0FEC6EF00301432B0201A6510301435D88E3452B020E456501D7010E0001666F0D0E0FEC6EF0010E0001666F0A0E5C
:403200000FEC6EF0210E00017F6FB10E7E6FDBEC66F0320E426E370E0201A66F320E0301436F18D0000143C366F0676BFCEC69F0000166C038F067C039F0010E666F3850A8
:403240000FEC6EF0010E0001666F39500FEC6EF00301432B0201A6510301435DE3E3010E0001666F0D0E0FEC6EF0010E0001666F0A0E0FEC6EF01F0E00017F6F800E7E6F12
:40328000DBEC66F0010E0001676FF40E666FFCEC69F0000166C038F067C039F038C080F039C081F024EC6EF0010E0001666F0D0E0FEC6EF0010E0001666F0A0E0FEC6EF065
:4032C000200E00017F6F2D0E7E6FDBEC66F047EC68F0F5CF38F00A00F5CF39F03828D8B4392803E1396A030E386E38C080F039C081F024EC6EF0010E0001666F0D0E0FEC38
:403300006EF0010E0001666F0A0E0FEC6EF0210E00017F6F6A0E7E6FDBEC66F0B8C238F0396A240E00017F6F370E7E6FDBEC66F038C080F039C081F024EC6EF0010E000134
:40334000666F0D0E0FEC6EF0010E0001666F0A0E0FEC6EF0210E00017F6F320E7E6FDBEC66F00001676B280E666FFCEC69F0000166C06EF067C06FF04DEC6EF06EC0CDF298
:403380006FC0CEF270C0CFF2020E0001B26FCD0EB16F7B6B7C6B470E7D6F676B290E666FFCEC69F0000166C06EF067C06FF04DEC6EF06EC078F06FC079F070C07AF0E2EC9B
:4033C0005BF078C0B3F079C0B4F07AC0B5F067EC6CF0CDC2D2F0CEC2D3F0CFC2D4F053EC5CF0010E0001666F0D0E0FEC6EF0010E0001666F0A0E0FEC6EF0200E00017F6FEC
:40340000150E7E6FDBEC66F0030E0001826F200E2FEC60F00001826B210E2FEC60F0010E0001666F0D0E0FEC6EF0010E0001666F0A0E0FEC6EF01F0E00017F6FFD0E7E6F78
:40344000DBEC66F0030E0001826F220E2FEC60F00001826B230E2FEC60F0010E0001666F0D0E0FEC6EF0010E0001666F0A0E0FEC6EF091EF28F01D0E00017F6FBA0E7E6FF1
:40348000DBEC66F0030E0001676F100E666FAAEC6BF0020AD8B480EF0CF00301030E496E100E486E456B48C0D9FF49C0DAFFDF50386E396A484A492A48C0D9FF49C0DAFFCF
:4034C000DF503926484A492A320E45250001C06FC16B000EC12338C0C2F039C0C3F067EC6BF00301452B040E4565DDD791EF28F0AB0EDAEC6AF00201B86702D03F0E01D0D6
:403500007F0EA76F516B526B51516DEC5BF0220E00017F6F900E7E6FDBEC66F051C280F052C281F024EC6EF0050E0001666F200E0FEC6EF0230E00017F6F190E7E6FDBEC81
:4035400066F0030E0001776F100E766F7FC278F080C279F07B6B100E7A6F48EC6AF076C07EF077C07FF0DBEC66F0050E0001666F200E0FEC6EF0230E00017F6F260E7E6F13
:40358000DBEC66F0030E0001776F100E766F81C278F082C279F07B6B100E7A6F48EC6AF076C07EF077C07FF0DBEC66F0010E0001666F0A0E0FEC6EF0010E0001666F0D0E63
:4035C0000FEC6EF0514B522BFF0E515D000E52599BE3230E00017F6F0C0E7E6FDBEC66F00201516B526BB851020A04E1320E6DEC5BF003D0000E6DEC5BF082EC60F0080E70
:4036000003013E6F3D6B3F6B3FD09BEC6FF0A76F61EC29F0A7390F0B91EC57F00001E62B02D062EC4BF0E62FFCD766C053F267C054F253C280F054C281F024EC6EF0010EA2
:403640000001666F200E0FEC6EF061EC29F0A7510F0B91EC57F00001E62B02D062EC4BF0E62FFCD766C053F267C054F253C280F054C281F024EC6EF0010E0001666F200EF7
:403680000FEC6EF0514B522B02018151515D8251525903E281B880A8B8D7BAEC6FF0B90EDAEC6AF091EF28F01C0E00017F6F210E7E6FDBEC66F0010E0001666F0A0E0FECF4
:4036C0006EF0010E0001666F0D0E0FEC6EF0210E00017F6FA00E7E6FDBEC66F0A8EC6EF0590A09E16AEC6DF01C0E00017F6FCA0E7E6FDBEC66F0B5EC67F091EF28F01B0E97
:4037000000017F6FC40E7E6FDBEC66F0010E0001666F0A0E0FEC6EF0010E0001666F0D0E0FEC6EF0210E00017F6FA00E7E6FDBEC66F0A8EC6EF0590ADEE1B9EC6EF01C0EF8
:4037400000017F6FF00E7E6FDBEC66F0D4D7DAEC6EF01F0E00017F6FCB0E7E6FDBEC66F091EF28F066EC4BF091EF28F05BEC6FF0C4EC35F0010E676F000EF0EC64F091EFA9
:4037800028F0040EF5EC5AF0050EF5EC5AF0060EF5EC5AF0040EF5EC5AF0030E0001666F200E0FEC6EF0070EF5EC5AF0060E0001666F200E0FEC6EF0070EF5EC5AF00D0E80
:4037C0000001666F200E0FEC6EF0070EF5EC5AF0060E0001666F200E0FEC6EF0070EF5EC5AF00C0E0001666F200E0FEC6EF0070EF5EC5AF0080E0001666F200E0FEC6EF051
:40380000070EF5EC5AF0090E0001666F200E0FEC6EF0070EF5EC5AF0040EF5EC5AF0050EF5EC5AF01E0E0001666F2A0E0FEC6EF01E0E00017F6FE00E7E6FDBEC66F01E0E47
:403840000001666F2A0E0FEC6EF0020E0001666F0A0E0FEC6EF0010E0001666F0D0E0FEC6EF0010E0001666F090E0FEC6EF0240E00017F6F330E7E6FDBEC66F0010E000160
:40388000666F090E0FEC6EF0030E0001666F200E0FEC6EF0230E00017F6FFF0E7E6FDBEC66F0010E0001666F090E0FEC6EF0240E00017F6F2C0E7E6FDBEC66F0010E000154
:4038C000666F090E0FEC6EF0020E0001666F200E0FEC6EF0200E00017F6FB20E7E6FDBEC66F0040E0001666F200E0FEC6EF0230E00017F6FD70E7E6FDBEC66F0010E0001A1
:40390000666F090E0FEC6EF0230E00017F6FC70E7E6FDBEC66F0010E0001666F090E0FEC6EF0210E00017F6F7C0E7E6FDBEC66F0020E0001666F0A0E0FEC6EF0010E0001D5
:40394000666F0D0E0FEC6EF0480E0001666F2D0E0FEC6EF0020E0001666F0A0E0FEC6EF0010E0001666F0D0E0FEC6EF0000E0001676B666BFCEC69F066C03AF067C03BF0F9
:403980003A28D8B43B2802E13A6A3B6ACE0E3A240201556FFF0E3B20566F56AF02D0556B566B55C236F056C237F05DD1010E0001666F090E0FEC6EF036280001806F000EA9
:4039C0003720816F24EC6EF0010E0001666F090E0FEC6EF036C06BF037C06CF0030E00016E6F100E6D6F24EC63F01CEC29F0E9EC28F00201A56F484A492A48C0D9FF49C0BA
:403A0000DAFFE9EC28F00201A86F484A492A48C0D9FFD3EC28F0436005D0010E666F300E0FEC6EF0000143C080F0816B24EC6EF0010E0001666F2F0E0FEC6EF048C0D9FFCE
:403A4000D3EC28F0436005D0010E666F300E0FEC6EF0000143C080F0816B24EC6EF0010E0001666F2F0E0FEC6EF00A0EA56106D0010E0001666F300E0FEC6EF00001A5C25B
:403A800080F0816B24EC6EF00A0E0201A86106D0010E0001666F300E0FEC6EF00001A8C280F0816B24EC6EF048C0D9FF49C0DAFFE9EC28F0436E484A492A030E666F200E18
:403AC0000FEC6EF043504CEC67F0010E0001666F090E0FEC6EF048C0D9FFD3EC28F0436005D0010E666F300E0FEC6EF0000143C080F0816B24EC6EF0010E0001666F3A0E51
:403B00000FEC6EF048C0D9FFD3EC28F0436005D0010E666F300E0FEC6EF0000143C080F0816B24EC6EF0010E0001666F3A0E0FEC6EF048C0D9FFD3EC28F0436005D0010EF0
:403B4000666F300E0FEC6EF0000143C080F0816B24EC6EF0010E0001666F090E0FEC6EF048C0D9FF49C0DAFFDF500001806F816B24EC6EF051EC29F00FEC6EF048C0D9FFEC
:403B800049C0DAFFDF5035EC29F0436006D0010E0001666F300E0FEC6EF0000143C080F0816B24EC6EF0010E0001666F090E0FEC6EF048C0D9FF49C0DAFFDF500001806FC1
:403BC000816B24EC6EF051EC29F00FEC6EF048C0D9FF49C0DAFFDF5035EC29F0436006D0010E0001666F300E0FEC6EF0000143C080F0816B24EC6EF0010E0001666F090ED2
:403C00000FEC6EF048C0D9FF49C0DAFFDF500001806F816B24EC6EF051EC29F00FEC6EF048C0D9FF49C0DAFFDF5035EC29F0436006D0010E0001666F300E0FEC6EF0000120
:403C400043C080F0816B24EC6EF0010E0001666F0A0E0FEC6EF0010E0001666F0D0E0FEC6EF0364A372A3A50365C3B50375802E391EF28F09BD6040EF5EC5AF0050EF5EC92
:403C80005AF01D0E00017F6FF80E7E6FDBEC66F01D0E00017F6F7A0E7E6FDBEC66F0030E0001676F100E666FAAEC6BF0020AD8B480EF0CF0030E0001676F100E666F24EC2A
:403CC00061F0010E666F0A0E0FEC6EF0010E0001666F0D0E0FEC6EF01F0E00017F6F4C0E7E6FDBEC66F0030E0001676F100E666FAAEC6BF0020AD8B480EF0CF0030E000164
:403D0000676F100E666F4EEC68F0010E666F0A0E0FEC6EF0010E0001666F0D0E0FEC6EF0D4EC69F0230E00017F6FAE0E7E6FDBEC66F0010E0001666F0A0E0FEC6EF0010E16
:403D40000001666F0D0E0FEC6EF091EF28F0040EF5EC5AF0050EF5EC5AF0DFEC6CF0220E00017F6FFF0E7E6FDBEC66F0BEEC6FF0436E43504CEC67F0030E0001666F200E98
:403D80000FEC6EF0030E0001676F100E666F6AEC63F0030E00017F6F100E7E6FDBEC66F0010E0001666F0D0E0FEC6EF0010E0001666F0A0E0FEC6EF0220E00017F6FF20E30
:403DC0007E6FDBEC66F0030E0001676F100E666F14EC67F0030E00017F6F100E7E6FDBEC66F0010E0001666F0D0E0FEC6EF0010E0001666F0A0E0FEC6EF091EF28F07C8F0D
:403E0000EDEC63F0AC6BAC5181EC67F0010E0001666F0D0E0FEC6EF0010E0001666F0A0E0FEC6EF0220E00017F6FC80E7E6FDBEC66F091EF28F07C9F010E0001666F0D0E1D
:403E40000FEC6EF0010E0001666F0A0E0FEC6EF0220E00017F6F720E7E6FDBEC66F091EF28F0040EF5EC5AF0050EF5EC5AF01D0E00017F6F9A0E7E6FDBEC66F0030E0001F9
:403E8000676F100E666FAAEC6BF0020AD8B480EF0CF0030E0001D66F100ED56F19EC6FF0D5C02CF2D6C02DF2D7C02EF2786BE00E796F400E7A6F2CC27BF02DC27CF02EC275
:403EC0007DF07FEC68F01FE2010E666F0A0E0FEC6EF0010E0001666F0D0E0FEC6EF01E0E00017F6F520E7E6FDBEC66F0010E0001666F0A0E0FEC6EF0010E0001666F0D0E08
:403F00000FEC6EF0B4D72CC2D2F02DC2D3F02EC2D4F0ECEC53F0010E0001666F0A0E0FEC6EF0010E0001666F0D0E0FEC6EF0220E00017F6FE40E7E6FDBEC66F0010E000192
:403F4000666F0A0E0FEC6EF0010E0001666F0D0E0FEC6EF01D0E00017F6F380E7E6FDBEC66F0030E0001676F100E666FAAEC6BF0020AD8B480EF0CF0030E0001736F100E57
:403F8000726F11EC5EF072510201AF6F0001786B400E796F410E7A6F0201AF5139EC6EF06EC07BF06FC07CF070C07DF07FEC68F01FE2010E666F0A0E0FEC6EF0010E00011F
:403FC000666F0D0E0FEC6EF01E0E00017F6F160E7E6FDBEC66F0010E0001666F0A0E0FEC6EF0010E0001666F0D0E0FEC6EF0B2D70201AF51AAEC54F0010E0001666F0A0E1D
:404000000FEC6EF0010E0001666F0D0E0FEC6EF0220E00017F6FE40E7E6FDBEC66F0010E0001666F0A0E0FEC6EF0010E0001666F0D0E0FEC6EF091EF28F0040EF5EC5AF02F
:40404000050EF5EC5AF0EDEC63F0436A230E00017F6FE60E7E6FDBEC66F0010E0001666F4350310F0FEC6EF0200E00017F6FC40E7E6FDBEC66F0435043EC6FF0426E070E1B
:40408000426002D07CBF08D0230E00017F6F9C0E7E6FDBEC66F003D042504CEC67F0030E0001666F200E0FEC6EF0030E0001676F100E666F4350B0EC65F0030E00017F6FE4
:4040C000100E7E6FDBEC66F0010E0001666F0D0E0FEC6EF0010E0001666F0A0E0FEC6EF0432A010E4364B2D7200E00017F6FB70E7E6FDBEC66F002017CBF08D0230E000109
:404100007F6F9C0E7E6FDBEC66F051D0030E0001676F100E666F44EC6BF01CEC29F0E9EC28F0436E484A492A48C0D9FF49C0DAFFDF50426E484A492A060E426407D0230E2A
:404140007F6F9C0E7E6FDBEC66F031D042504CEC67F0030E0001666F200E0FEC6EF00A0E436006D0010E0001666F300E0FEC6EF0000143C080F0816B24EC6EF0010E000122
:40418000666F3A0E0FEC6EF0484A492A48C0D9FFD3EC28F0436005D0010E666F300E0FEC6EF0000143C080F0816B24EC6EF0010E0001666F0D0E0FEC6EF0010E0001666FCE
:4041C0000A0E0FEC6EF091EF28F0000E0001D96BD86B81EC49F039EC29F07FEC68F025E2826B1F0E816F79EC4AF00201B851020A0DE10001826B320E816F79EC4AF0000105
:40420000826B330E816F79EC4AF006D00001826B210E816F79EC4AF0240E00017F6F100E7E6FDBEC66F091EF28F0240E7F6F140E7E6FDBEC66F05BEC6FF0F29E6AEC59F03D
:4042400004E25BEC6FF024EF28F0F28E200E00017F6FE10E7E6FDBEC66F091EF28F0000E0001D96BD86B81EC49F039EC29F07FEC68F025E2826B1F0E816F79EC4AF0020169
:40428000B851020A0DE10001826B320E816F79EC4AF00001826B330E816F79EC4AF006D00001826B210E816F79EC4AF0240E00017F6F100E7E6FDBEC66F091EF28F0240EEB
:4042C0007F6F140E7E6FDBEC66F05BEC6FF0F29EFF0091EF28F0010E0301366F560E0201F36F040EF5EC5AF0050EF5EC5AF0060EF5EC5AF0080E0001666F200E0FEC6EF029
:40430000070EF5EC5AF01C0E0001666F200E0FEC6EF0070EF5EC5AF01C0E0001666F200E0FEC6EF0070EF5EC5AF0100E0001666F200E0FEC6EF0070EF5EC5AF0040EF5EC01
:404340005AF0050EF5EC5AF0560E0001666F2A0E0FEC6EF0010E0001666F0A0E0FEC6EF0010E0001666F0D0E0FEC6EF01B0E00017F6FB00E7E6FDBEC66F0010E0001666F76
:40438000090E0FEC6EF01B0E00017F6F400E7E6FDBEC66F0010E0001666F090E0FEC6EF01B0E00017F6F820E7E6FDBEC66F0010E0001666F090E0FEC6EF01B0E00017F6FA9
:4043C000570E7E6FDBEC66F0010E0001666F090E0FEC6EF01B0E00017F6F890E7E6FDBEC66F0010E0001666F090E0FEC6EF0010E0001666F0A0E0FEC6EF0010E0001666FB0
:404400000D0E0FEC6EF0560E0001666F2A0E0FEC6EF0010E0001666F0A0E0FEC6EF0010E0001666F0D0E0FEC6EF03B6A010E3A6E010E0001666F200E0FEC6EF03AC080F05C
:404440003BC081F024EC6EF0010E0001666F090E0FEC6EF00FEF27F01B0E7F6F4C0E7E6FDBEC66F0010E0001666F090E0FEC6EF0AD51020A11E0220E00017F6FD60E7E6F3D
:40448000DBEC66F0010E0001666F090E0FEC6EF0010E0301446F59D0010E6FEC64F0010ED8EC68F0230E7F6F330E7E6FDBEC66F0010EFCEC6CF007D00E0E10EC29F0030EDC
:4044C000A0EC3AF003000001F351020AF5E1000EFCEC6CF0000ED8EC68F0010E0301446F080EF5EC5AF0010E0001666F0D0E0FEC6EF0010E0001666F200E0FEC6EF03AC09A
:4045000080F03BC081F024EC6EF0010E0001666F090E0FEC6EF01B0E00017F6F4C0E7E6FDBEC66F0010E0001666F090E0FEC6EF0220E00017F6F350E7E6FDBEC66F0010E90
:404540000001666F090E0FEC6EF0010E0001666F090E0FEC6EF038EF27F01B0E7F6F6B0E7E6FDBEC66F0010E0001666F090E0FEC6EF0030E0001D96F460ED86F0201AD517D
:4045800081EC49F00001E66F040EE65D2EE3010E0301446F0201AD512AE046C36EF047C36FF018EC6DF06EC078F06FC079F070C07AF07B6B480E7C6FC30E7D6F7FEC68F028
:4045C00014E3786B480E796F430E7A6F46C36EF047C36FF018EC6DF06EC07BF06FC07CF070C07DF07FEC68F002E20301446BD0C2D2F0D1C2D3F0D2C2D4F053EC5CF0010E71
:404600000001666F090E0FEC6EF046C380F047C381F024EC6EF0010E0001666F090E0FEC6EF038EF27F01B0E7F6F9C0E7E6FDBEC66F0010E0001666F090E0FEC6EF0030E0E
:404640000001D96F460ED86F0201AD51DBEC56F0090A2EE1010E0301446F0201AD512AE046C36EF047C36FF018EC6DF06EC078F06FC079F070C07AF07B6BD20E7C6FC20EDB
:404680007D6F7FEC68F014E3786BD20E796F420E7A6F46C36EF047C36FF018EC6DF06EC07BF06FC07CF070C07DF07FEC68F002E20301446BD3C2D2F0D4C2D3F0D5C2D4F009
:4046C00053EC5CF0010E0001666F090E0FEC6EF046C380F047C381F024EC6EF0010E0001666F090E0FEC6EF0C3D31B0E7F6F960E7E6FDBEC66F0010E0001666F090E0FECD1
:404700006EF080EC29F034E11F0E00017F6FB20E7E6FDBEC66F0376A640E366E36C0C0F037C0C1F0630E0001C36F360EC26F67EC6BF072EC29F0F2E3376A640E366E36C0D6
:4047400066F037C067F0FCEC69F000016751630A360ED8B4661902E00301446B72EC29F0EEE3010E0001666F090E0FEC6EF00DD0220E00017F6FD60E7E6FDBEC66F0010EB4
:404780000001666F090E0FEC6EF0010E0001666F090E0FEC6EF06CD31B0E7F6F340E7E6FDBEC66F0010E0001666F090E0FEC6EF060D0CD6BC80ECE6F410ECF6F5FD01E0E04
:4047C00000017F6F8C0E7E6FDBEC66F0030E0001676F100E666FAAEC6BF0020AD8B480EF0CF0030E0001D66F100ED56F19EC6FF0D5C0CDF2D6C0CEF2D7C0CFF27F0E0201A8
:40480000CF15CE11CD110CE1000E0001DC6BDB6BA6EC3EF0DCC2CDF2DDC2CEF2DEC2CFF2080EF5EC5AF0010E0001666F0D0E0FEC6EF0010E0001666F200E0FEC6EF03AC071
:4048400080F03BC081F024EC6EF0010E0001666F090E0FEC6EF01B0E00017F6F340E7E6FDBEC66F0010E0001666F090E0FEC6EF005D0AD5103E0020A9CE0A1D7030E000118
:40488000DC6F460EDB6F0201AD51A6EC3EF00C0A43E1080EF5EC5AF0010E0001666F0D0E0FEC6EF0010E0001666F200E0FEC6EF03AC080F03BC081F024EC6EF0010E0001BA
:4048C000666F090E0FEC6EF01B0E00017F6F340E7E6FDBEC66F0010E0001666F090E0FEC6EF0010E0301446F46C36EF047C36FF018EC6DF0CAEC32F07FEC68F00DE357ECF5
:4049000029F018EC6DF06EC07BF06FC07CF070C07DF07FEC68F002E20301446BDCC2D2F0DDC2D3F0DEC2D4F053EC5CF0010E0001666F090E0FEC6EF046C380F047C381F0D8
:4049400024EC6EF0010E0001666F090E0FEC6EF0AD51020A06E1CD6BC80ECE6F410ECF6F06D0DCC2CDF2DDC2CEF2DEC2CFF2CDC2B1F0CEC2B2F0CFC2B3F0D7EC5EF0B1C0A0
:4049800083F2B2C084F2C16B280EC06F83C2C2F084C2C3F067EC6BF083C26EF084C26FF04DEC6EF06EC075F06FC076F070C077F0CDC272F0CEC273F0CFC274F0CDEC6DF0DE
:4049C00072C08FF073C090F074C091F0926B936B470E946F78EC5AF08FC02FF290C030F291C031F2C16B290EC06F2FC2B1F030C2B2F031C2B3F0D7EC5EF0B1C0C2F0B2C053
:404A0000C3F067EC6BF034D21A0E7F6FF30E7E6FDBEC66F0010E0001666F090E0FEC6EF005EC42F087EC5FF0010E0001676FF40E666F89EC6BF0DEDB6AEC29F083EC47F059
:404A4000110A04E1010E0301446F02D00301446BD6C2D2F0D7C2D3F0D8C2D4F053EC5CF0010E0001666F090E0FEC6EF046C380F047C381F024EC6EF0010E0001666F090E99
:404A80000FEC6EF0F5D11B0E7F6F050E7E6FDBEC66F0010E0001666F090E0FEC6EF0DAEC32F087EC5FF0050E0001676FDC0E666F89EC6BF09FDB6AEC29F083EC47F0110A81
:404AC00025E1010E0301446F0201AD5121E046C36EF047C36FF018EC6DF0CAEC32F07FEC68F014E3786B160E796F430E7A6F46C36EF047C36FF018EC6DF06EC07BF06FC003
:404B00007CF070C07DF07FEC68F002E20301446BD6C2D2F0D7C2D3F0D8C2D4F053EC5CF0010E0001666F090E0FEC6EF046C380F047C381F024EC6EF0010E0001666F090EC0
:404B40000FEC6EF0AEEC32F087EC5FF091D11B0E7F6F160E7E6FDBEC66F0010E0001666F090E0FEC6EF0030E0001D96F460ED86F0201AD5195EC51F0130A2AE1C1DB2BE1DA
:404B800046C36EF047C36FF018EC6DF06EC078F06FC079F070C07AF07B6BC80E7C6FC20E7D6F7FEC68F014E3786BC80E796F420E7A6F46C36EF047C36FF018EC6DF06EC0A6
:404BC0007BF06FC07CF070C07DF07FEC68F028E20301446B25D0AD0503E0AD51030A20E146C36EF047C36FF018EC6DF06EC078F06FC079F070C07AF07B6BAF0E7C6FC30EA4
:404C00007D6F7FEC68F0E4E352DB18EC6DF06EC07BF06FC07CF070C07DF07FEC68F0D8E3D9C2D2F0DAC2D3F0DBC2D4F053EC5CF0010E0001666F090E0FEC6EF046C380F0AB
:404C400047C381F024EC6EF0010E0001666F090E0FEC6EF00DD11B0E7F6F7B0E7E6FDBEC66F0010E0001666F090E0FEC6EF080A881A811D0AD51020A0EE0230E00017F6FCF
:404C8000CF0E7E6FDBEC66F0376A030E366E010E0301446F29D080B881B80DD0AD51020A0AE0230E00017F6FA50E7E6FDBEC66F0376A050EEBD780A881B80DD0AD51020A1B
:404CC0000AE1230E00017F6F890E7E6FDBEC66F0366A376ADCD7230E00017F6FF40E7E6FDBEC66F00301446B010E0001666F090E0FEC6EF036C080F037C081F024EC6EF0A4
:404D0000010E0001666F090E0FEC6EF0B1D01B0E7F6F900E7E6FDBEC66F0010E0001666F090E0FEC6EF0AD51020A17E10001676B1B0E666FFCEC69F0D6EC32F0D8B4661986
:404D400009E1000E826B816B79EC4AF0010E0301446F17D00301446B14D00001676B1A0E666FFCEC69F0D6EC32F0D8B4661903E11CEC68F0EBD7676B1B0E666FFCEC69F068
:404D8000DBD7230E00017F6F400E7E6FDBEC66F00001816B7E0E806F24EC6EF0240E00017F6F350E7E6FDBEC66F047EC68F0F5CFE6F00900F5CFE7F00001E629D8B4E72910
:404DC00006E1816B030E806F24EC6EF00ED0FE0EF66E180EF76E000EF86A0900F5CF80F00A00F5CF81F024EC6EF0020E0001666F200E0FEC6EF0240E00017F6F370E7E6F7F
:404E0000DBEC66F00001B8C280F0816B24EC6EF0020E0001666F090E0FEC6EF029D03AC0E6F03BC0E7F00001E75122E1E651010A02E12CEF22F0030A02E1ADEF22F0010AE8
:404E400002E113EF23F0070A01E14FD4010A01E1A3D4030A01E1D8D5010A01E114D60F0A01E175D6010A01E1F6D6030A01E14FD7030144510BE0020EF5EC5AF01B0E000150
:404E80007F6FA60E7E6FDBEC66F00BD0366B030EF5EC5AF01B0E00017F6FA10E7E6FDBEC66F0000EF5EC5AF0010E0001666F0A0E0FEC6EF0010E0001666F0D0E0FEC6EF0D5
:404EC0003A4A3B2A0B0E3A5C000E3B5802E218EF22F00301366704D0030EF5EC5AF003D0020EF5EC5AF0F3C266F02A0E0FEC6EF0010E0001666F0A0E0FEC6EF0010E0001BB
:404F0000666F0D0E0FEC6EF0020E0001666F090E0FEC6EF00301365130E0456B1B0E00017F6FA60E7E6FDBEC66F0010E0001666F200E0FEC6EF00301452B030E4565EED751
:404F40000001C16B190EC06FA50EC36FC26F67EC6BF0200ED6EC58F0090E0001C06FC16BC26BC36BC46B140EC56F420EC66F020EA0EC3AF08D9E8B942ED0456B1B0E0001F2
:404F80007F6FA10E7E6FDBEC66F0010E0001666F200E0FEC6EF00301452B030E4565EED70201AD5109E00001C16B190EC06FFF0EC369C26967EC6BF0090E0001C06FC16BF8
:404FC000700EC26F420EC36FC46BC56BC66B010EA0EC3AF0CFD7010E0001666F0A0E0FEC6EF0010E0001666F0D0E0FEC6EF0F3C266F02A0E0FEC6EF0000EF5EC5AF0020EF1
:405000000001666F0A0E0FEC6EF0010E0001666F0D0E0FEC6EF0020E0001666F090E0FEC6EF0200E00017F6F740E7E6FDBEC66F00301366776D0010ED8EC68F072D000017C
:405040009AEC3AF067EC6BF080EF0CF06AD00B0EB46F67D0BB51050A02E154EF1BF0100AF3E0360A02E1B6EF1BF0070A02E16BEF21F0020A02E1E5EF20F00C0A02E12FEF65
:4050800021F0150A02E1BCEF12F07E0A02E131EF1FF0030A02E1FFEF1EF0010AD0E0070A02E1F5EF17F0010A02E17FEF1BF0090A02E1B2EF1BF0020A02E17CEF12F01E0A83
:4050C00002E11DEF14F0030AC2E0070A02E13BEF1EF0020A02E1C1EF1BF0010A02E178EF1AF00F0A02E1C9EF12F0020A02E1C0EF12F03B0A02E11DEF20F0030A02E11BEF45
:405100001FF0070A02E1A7EF1BF00B0A02E1A3EF12F01D0A02E13BEF1AF0070A02E1A7EF1EF0010EFCEC6CF0010E36EC6FF0010ECAEC6EF001D0030002017BAF7CB303D060
:4051400081B880A8F8D77BAF0DD00001F351FDE0F305FBE0F351020A02E1240E01D01B0E020107D07BBD81A802D080B8F8D7A8EC6EF0BB6F000EFCEC6CF0000ECAEC6EF000
:405180000201BB511B0A04E081B880A82BEF12F05BEC6FF0010EFCEC6CF0000ECAEC6EF0030ED8EF68F049C0DAFFDF500001E66F0F0EE61748C0D9FF49C0DAFFDF50E76F47
:4051C000E7390F0B0A0DF350E625436E484A492A0A0CDF500001E66F0F0EE61748C0D9FF49C0DAFFDF50E76FE7390F0B0A0DF350E6251200C10EF66E1B0EF76E000EF86E78
:405200000900F5CFE6F00900F5CFE7F00900F5CFE8F0E6C0D8F0E7C0D9F0E8C0DAF01200C06FC16B880EC26F410EC36FC46B140EC56F420EC66F420C030E496E100E486E89
:4052400048C0D9FF49C0DAFF1200B26F0F0EB26F5F0EB165B26BB36B1200796F0F0E796F5F0E7865796B7A6B1200436E484A492A0A0CD0C278F0D1C279F0D2C27AF0000158
:405280007B6B600E7C6F400E7D6F400CA0C078F0A1C079F0A2C07AF07B6B7C6B400E7D6F400C484A492A010E0001666F2E0C786BAF0E796F430E7A6F46C36EF047C36FF0C2
:4052C000430CB9C2E6F0030E0001676F3D0E666F02011200ADC2DBF0030E0001DD6F460EDC6F1200364A372AF40E365C010E375812000001786B480E796F420E7A6F420CDA
:40530000010E0301446F0201AD51020A12000001EE6B3C0ED016FC6A53EC4CF0010E6FEC64F0000ED8EC68F0676B666B040EDCEC62F07CEC6FF0000EFCEC6CF0000ECAEC89
:405340006EF072EC6FF05BEC6FF0010EC16FF40EC06FC36B7E0EC26F67EC6BF00001676B010E666FFCEC69F0F9EC32F0D8B4F02920E0F051EF111DE0B9EC6EF0000118EC79
:4053800038F067EC6BF00001C16B1C0EC06FA50EC36FC26F67EC6BF00001C16B200EC06FFF0EC369C26967EC6BF0F1EC32F067EC6BF0010E92EC6AF00001676B1A0E666FCD
:4053C000FCEC69F0D6EC32F0D8B466190AE0676B1B0E666FFCEC69F0D6EC32F0D8B466191FE102017C85AB0EDAEC6AF0000E6DEC5BF07F05801102E1B86B0ED07F51100A21
:4054000080110AE1320E6DEC5BF08051080A7F11020ED8A4010EB86FB90EDAEC6AF004D0010E0201B86F7C950001676B280E666FFCEC69F0000166C06EF067C06FF04DEC6F
:405440006EF06EC0CDF26FC0CEF270C0CFF2020E0001B26FCD0EB16F7B6B7C6B470E7D6F676B290E666FFCEC69F0000166C06EF067C06FF04DEC6EF06EC078F06FC079F0D7
:4054800070C07AF0E2EC5BF078C0B3F079C0B4F07AC0B5F067EC6CF0B5EC67F002017C9FEDEC63F05BEC6FF00D0E0201B56FEAEF2FF00001676B190E666FFCEC69F0D6ECFF
:4054C00032F0D8B4661903E0130EC6EF2FF0676B1A0E666FFCEC69F0D6EC32F0D8B4661903E0160EC6EF2FF0676B1C0E666FFCEC69F0D6EC32F0D8B4661903E0170EC6EF0F
:405500002FF0676B1D0E666FFCEC69F0D6EC32F0D8B4661903E0180EC6EF2FF0676B1E0E666FFCEC69F0D6EC32F0D8B4661903E0190EC6EF2FF0D0A202D0D0B003D00E0ED9
:40554000C6EF2FF0010ECAEC6EF0050E0201B46F02017B8D2BEF30F00001676B190E666FFCEC69F0D6EC32F0D8B46619BAE083A01DD0020E0201AD6F0001676B1B0E666F0D
:40558000FCEC69F0D6EC32F0D8B466190CE1B9EC6EF00001C16B1B0EC06FA50EC36FC26F67EC6BF02BD0B9EC6EF028D0676B1E0E666FFCEC69F0D6EC32F0D8B466190DE09C
:4055C000030E0201AD6F00019AEC3AF067EC6BF060EC6EF0FAEC6EF011D0010E0201AD6F220ED6EC58F0E1EC32F067EC6BF000019AEC3AF067EC6BF096EC6EF0B5EC67F011
:40560000010E676F000EF0EC64F00AE31DEC12F0B5EC67F00201AD0503E081B880A8FDD70201AD6B2BEF30F00001676B1A0E666FFCEC69F0D6EC32F0D8B4661901E15ED71E
:4056400081A803D080B82BEF30F0010E676F000EF0EC64F00201AD6B1DEC12F02BEF30F00001676B1C0E666FFCEC69F0D6EC32F0D8B4661912E081A802D080B808D01B0E11
:405680007F6FB50E7E6FDBEC66F02BEF30F05BEC6FF006EC33F02BEF30F05BEC6FF03BD70001676B1D0E666FFCEC69F0D6EC32F0D8B4661901E13CD7010E676F2C0E666F5C
:4056C00089EC6BF081B880A82BEF30F00001826B2E0E816F79EC4AF00001826B300E816F79EC4AF0110EC6EF2FF00001676B1F0E666FFCEC69F0D6EC32F0D8B4661901E1F1
:405700009FD0676B1E0E666FFCEC69F0D6EC32F0D8B4661901E194D081A802D080B804D0D0A202D0D0B003D002017C8D5BD0000EACEC69F050E302017BA139D00001EE2B68
:40574000180EEE6528D0C06B980EC16F410EC26F87EC5FF0E1EC32F067EC6BF002017C910001826B250E816F79EC4AF00001826B300E816F79EC4AF00001826B230E816F4E
:4057800079EC4AF0000E0001C16BC06BC36BC26B67EC6BF027D0010E676F2C0E666F000EDCEC62F0AEEC32F087EC5FF01BD0010E0001676F2C0E666F000EDCEC62F0DAEC7C
:4057C00032F087EC5FF0050E0001676FDC0E666F89EC6BF007D05DEC40F0A6E302017BA57BB7A2D702017CAD2BEF30F00001C06B980EC16F410EC26F87EC5FF00001826B0D
:405800001F0E816F79EC4AF00001826B250E816F79EC4AF00001826B300E816F79EC4AF0000E0001C16BC06BEEC0C2F0C36B67EC6BF00E0E0201B46F7B9B7B992BEF30F0F9
:40584000C06B980EC16F410EC26F87EC5FF002017B8DF1EC32F067EC6BF0939AFCD381A802D080B8F8D30001826B300E816F79EC4AF00001826B240E816F79EC4AF0120EA9
:4058800085D380B881A80DD00001826B300E816F79EC4AF00001826B1F0E816F79EC4AF03AD680A881A8D7D360EC6EF0B5EC67F0000ED96FF10ED86F020E81EC49F00001ED
:4058C000EB6F040EEB5D51E3F1C06EF0F2C06FF018EC6DF06EC078F06FC079F070C07AF07B6B480E7C6FC30E7D6F7FEC68F014E3786B480E796F430E7A6FF1C06EF0F2C0BD
:405900006FF018EC6DF06EC07BF06FC07CF070C07DF07FEC68F02EE20201B851020A0DE10001826B320E816F79EC4AF00001826B330E816F79EC4AF006D00001826B210E8F
:40594000816F79EC4AF00001826B1F0E816F79EC4AF0D0C2D4F0D1C2D5F0D2C2D6F0C4EC5CF0180E0201B46F05D00201B851020AD7E0E3D70001000ED96FF10ED86F020E93
:40598000DBEC56F0090A28E1F1C06EF0F2C06FF018EC6DF06EC078F06FC079F070C07AF07B6BD20E7C6FC20E7D6F7FEC68F014E3786BD20E796F420E7A6FF1C06EF0F2C0A9
:4059C0006FF018EC6DF06EC07BF06FC07CF070C07DF07FEC68F017E20001826B260E816F79EC4AF00001826B1F0E816F79EC4AF0D3C2D4F0D4C2D5F0D5C2D6F0C4EC5CF0F2
:405A0000180E0201B46F0001000EDC6FF10EDB6F000EA6EC3EF00C0A1FE1F1C06EF0F2C06FF018EC6DF0CAEC32F07FEC68F014E3786BAF0E796F430E7A6FF1C06EF0F2C0FD
:405A40006FF018EC6DF06EC07BF06FC07CF070C07DF07FEC68F018E20001826B1E0E816F79EC4AF00001826B1F0E816F79EC4AF0DCC2D4F0DDC2D5F0DEC2D6F0C4EC5CF05D
:405A8000180E0201B46F4CD0CDC2B1F0CEC2B2F0CFC2B3F0D7EC5EF0B1C083F2B2C084F2C16B280EC06F83C2C2F084C2C3F067EC6BF083C26EF084C26FF04DEC6EF06EC0CD
:405AC00075F06FC076F070C077F0CDC272F0CEC273F0CFC274F0CDEC6DF072C08FF073C090F074C091F0926B936B470E946F78EC5AF08FC02FF290C030F291C031F2C16B8A
:405B0000290EC06F2FC2B1F030C2B2F031C2B3F0D7EC5EF0B1C0C2F0B2C0C3F067EC6BF0020E26EC4EF00001000ED96FF10ED86F010E95EC51F0130A28E1F1C06EF0F2C087
:405B40006FF018EC6DF06EC078F06FC079F070C07AF07B6BAF0E7C6FC30E7D6F7FEC68F014E3786BAF0E796F430E7A6FF1C06EF0F2C06FF018EC6DF06EC07BF06FC07CF021
:405B800070C07DF07FEC68F017E20001826B260E816F79EC4AF00001826B1F0E816F79EC4AF0D9C2D4F0DAC2D5F0DBC2D6F0C4EC5CF0180E0201B46F000E26EC4EF005EC77
:405BC00042F087EC5FF0010E0001676FF40E666F89EC6BF0C10EB5EC32F0000E0001DB6BDD6BDC6B83EC47F0110A17E00001826B250E816F79EC4AF00001826B1F0E816F3B
:405C000079EC4AF0D6C2D4F0D7C2D5F0D8C2D6F0C4EC5CF0180E0201B46FDAEC32F087EC5FF0050E0001676FDC0E666F89EC6BF0C10EB5EC32F0010E0001DB6F000EDD6FFA
:405C4000F10EDC6F83EC47F0110A1FE1F1C06EF0F2C06FF018EC6DF0CAEC32F07FEC68F014E3786B160E796F430E7A6FF1C06EF0F2C06FF018EC6DF06EC07BF06FC07CF028
:405C800070C07DF07FEC68F017E20001826B250E816F79EC4AF00001826B1F0E816F79EC4AF0D6C2D4F0D7C2D5F0D8C2D6F0C4EC5CF0180E0201B46FAEEC32F087EC5FF051
:405CC0000201B451120A1AE10001826B300E816F79EC4AF00001826B230E816F79EC4AF00001C16B1D0EC06FA50EC36FC26F67EC6BF0B5EC67F0D082D0800DD4B851020A41
:405D000001E0A9D10001826B370E816F79EC4AF0A2D17BB31BD0D082D080090E49EC6CF00201B851020A06E10001826B370E816F79EC4AF00001826B260E816F79EC4AF0FE
:405D40000001826B1F0E816F79EC4AF002017B8382D1010E6FEC64F0030ED8EC68F07BD1010EACEC69F005E3080E49EC6CF00A0E0DD1030E26EC4EF05DEC40F035E3020174
:405D80007BA117D0240E2BEC66F00201B851020A06E10001826B350E816F79EC4AF0020E0001676F580E666F000EDCEC62F0070EEDD0B3670FD00001826B2E0E816F79ECEE
:405DC0004AF00001826B270E816F79EC4AF00201B32B41D1B30501E03ED10001826B200E816F79EC4AF0F3D7F4DBDCEC62F033D1000EACEC69F008E3B1DB87EC5FF0000E74
:405E000026EC4EF00C0EC2D0020E0201B86103D0030E26EC4EF05DEC40F024E302017BA11BD07C81000E30EC65F00201B9510E0A01E111D1B851020A01E00DD17BB502D041
:405E40007BA703D0B551E9EC4FF00001C96B380EC86F3FEC4DF0FFD0080EB46FD1DBDCEC62F0F9D0B6DBDCEC62F0F5D0010EACEC69F004E3080E49EC6CF079D7030E26ECF1
:405E80004EF05DEC40F019E302017BA10DD00001826B270E816F79EC4AF00001826B2A0E816F79EC4AF083D77BB3D5D00001826B200E816F79EC4AF049D70001676B780E7B
:405EC000666F010EDCEC62F0090E60D0010EACEC69F001E2C0D0080E49EC6CF048D7000E26EC4EF0000E0001676B666BFCEC69F080DBD8B4F02902E1EF6BF06BEFC0C4F0D8
:405F0000F0C0C5F07AEC46F0000E49EC6CF026DB87EC5FF00201B851020A06E10001826B340E816F79EC4AF0230E2BEC66F0050E2DD0000E26EC4EF011DB87EC5FF0000185
:405F4000826B270E816F79EC4AF00001826B280E816F79EC4AF0A8EF2AF0000E6FEC64F00001826B260E816F79EC4AF081B410D0000ECAEC6EF0826B300E816F79EC4AF0AD
:405F800081A4FED7010EFCEC6CF01D0E020115D00001826B2A0E816F79EC4AF0010EFCEC6CF0050E0201B56F7B8DEDEC63F0AC6B52D081B880A84FD00D0EB46F4CD0020EE8
:405FC000ACEC69F002E3A8EF2AF045D0020EACEC69F0F8D70201B551040A01E1C1D6010A01E1B7D6020A01E103D70F0A01E13ED7010A01E16BD7030A9CE0010AAEE0070AF1
:4060000001E16DD7010A02E159EF2AF0030A01E180D61F0A01E123D4030A01E132D4010A02E1ACEF2AF0050A02E114EF2BF0010A02E130EF2BF00F0A02E150EF2BF0010A72
:4060400002E175EF2BF0020ABAE0070ABFE0010AB0E0A8EF2AF002017BAF03D0B55141EC38F002017BAD04D0B8EC61F00201B46F4EAA4CD04E9A0201B551020A21E1B8518B
:40608000020A0DE10001826B370E816F79EC4AF00001826B320E816F79EC4AF006D00001826B210E816F79EC4AF00001826B1F0E816F79EC4AF0010EAAEC54F01C0E24D034
:4060C000B851020A06E10001826B360E816F79EC4AF00001826B270E816F79EC4AF00001826B2E0E816F79EC4AF00001826B010E816F79EC4AF00001D26B800ED36F3F0E91
:40610000D46FECEC53F01B0E0201B46F0201B451B51901E1F7D1B4C2B5F2B551E9EC4FF0B3D1010E6FEC64F0020ED8EC68F0010EFCEC6CF0000ECAEC6EF0B2EC6FF0E2D168
:40614000010E6FEC64F0020ED8EC68F0010EFCEC6CF0000ECAEC6EF002017B93EED7010E6FEC64F0010ED8EC68F0010EFCEC6CF0010E0001676F000EF0EC64F0000ECAECC6
:406180006EF0DBD7010E6FEC64F0020ED8EC68F0010EFCEC6CF0000ECAEC6EF0CED7010E6FEC64F0020ED8EC68F0010EFCEC6CF0000ECAEC6EF0BCEC6FF002017B9B7B9938
:4061C0007C817B917C9D0001EE6B676B666B040EDCEC62F0938A96D1010E6FEC64F0020ED8EC68F0010EFCEC6CF0000ECAEC6EF0A4D7010E6FEC64F0030ED8EC68F0010EFC
:40620000FCEC6CF0000ECAEC6EF00201AF51AAEC54F0010E81EC67F075D1020E26EC4EF09DD987EC5FF0000E26EC4EF00001676B666B040EDCEC62F072EC6FF0000EAAECDB
:4062400054F0010EFCEC6CF0010ECAEC6EF0030E6FEC64F0000ED8EC68F054D1010E6FEC64F0010ED8EC68F0010EFCEC6CF0010ECAEC6EF0BCEC6FF0010E26EC4EF002018D
:40628000B36B7B9B7B997C910001676BC80E666F89EC6BF0B5D9DCEC62F034D1010E6FEC64F0020ED8EC68F0010EFCEC6CF0010ECAEC6EF002017B9B7B9924D1010E6FECA2
:4062C00064F0010ED8EC68F0010EFCEC6CF0010ECAEC6EF002017B9315D1010E6FEC64F0010ED8EC68F0010EFCEC6CF0010ECAEC6EF00201B96BB851020A01E003D1000161
:40630000826B370E816F79EC4AF0FCD0010E6FEC64F0030ED8EC68F02CC2D2F02DC2D3F02EC2D4F0ECEC53F0EDD0B96B010E6FEC64F0030ED8EC68F0010EFCEC6CF0010E86
:40634000CAEC6EF002017B8DB7EC6FF0DBD0B96B010E6FEC64F0020ED8EC68F0010EFCEC6CF0010ECAEC6EF0010E676F2C0E666F020EDCEC62F0C6D0B96B010E6FEC64F037
:40638000010ED8EC68F0010EFCEC6CF0010ECAEC6EF0040E676FB00E666F020EDCEC62F0B1D0B96B010E6FEC64F0020ED8EC68F0010EFCEC6CF0000ECAEC6EF0BCEC6FF08C
:4063C000A1D0010E6FEC64F0030ED8EC68F0010EFCEC6CF0010ECAEC6EF00201AF51AAEC54F090D00A0E49EC6CF0010E6FEC64F0020ED8EC68F0010EFCEC6CF0010ECAECE3
:406400006EF0000EAAEC54F07DD0020E26EC4EF0A5D887EC5FF0000E26EC4EF00001676B666B040EDCEC62F072EC6FF0000EFCEC6CF0010ECAEC6EF0826B260E816F79EC54
:406440004AF00001826B2B0E816F79EC4AF0030E6FEC64F0000ED8EC68F06FD6B16B010EFCEC6CF0010ECAEC6EF0010E6FEC64F0000ED8EC68F061D6B96B010EFCEC6CF0D5
:40648000010ECAEC6EF059D60201B551010AAAE0030A97E0060A01E1E1D6010A01E1BDD6020A01E1FBD60F0A01E108D7010A01E114D7030A01E139D7010AA7E0070A01E14A
:4064C00025D7020A01E16DD71F0A01E185D6030A01E18FD6010A01E124D6050A01E130D6010A01E13CD60F0A01E14CD6010A01E156D6020A01E12BD7070A01E13DD7010A9F
:40650000ADE0BAD70201B551020A06E0B551120A03E0B551090A06E1000E0001D96BD86B81EC49F0B551E9EC4FF00201B5510B0A03E0B551050A02E1D18E01D0D19E7BAF25
:406540007BBD48D5B551070A07E1010EB86504D0B9510E0A01E03ED503003CD50001C06B980EC16F410EC26F410CF66E1B0EF76E000EF86E0900F5CFEBF00900F5CFECF017
:406580000900F5CFEDF0EBC0D8F0ECC0D9F0EDC0DAF012006EC078F06FC079F070C07AF07B6B160E7C6FC30E7D6FC30C00016751A50AA50C0001C06BA00EC16F410EC26FD4
:4065C000410C0001C16B1F0EC06FA50EC36FC26FA50C090E0201B46F0001676B780E666F010C0001C16B1E0EC06FA50EC36FC26FA50C000166C0EFF067C0F0F0EF29120000
:40660000020E0001676F580E666F010C4D924D9600014D94010EFCEC6CF0010E6FEC64F0000ED8EC68F0826B260E816F79EC4AF00001826B300E816F79EC4AF00001676B0E
:406640001E0E666FFCEC69F0D6EC32F0D8B4661956E00201CD6BBC0ECE6F410ECF6FCDC2B1F0CEC2B2F0CFC2B3F0D7EC5EF0B1C083F2B2C084F2C16B280EC06F83C2C2F0E7
:4066800084C2C3F067EC6BF083C26EF084C26FF04DEC6EF06EC075F06FC076F070C077F0CDC272F0CEC273F0CFC274F0CDEC6DF072C08FF073C090F074C091F0926B936B92
:4066C000470E946F78EC5AF08FC02FF290C030F291C031F22FC2B1F030C2B2F031C2B3F0D7EC5EF0B1C083F2B2C084F2C16B290EC06F83C2C2F084C2C3F067EC6BF0020170
:40670000996BEBD1090E000110EC29F0030EA0EC3AF08D9E8B940201456B466B000E80B8010E0001E16FE26BD890E137E237D890E137E237E151020145270001E2510201FA
:406740004623000E81B8010E0001E16FE26BD890E135E36FE235E46FE351020145270001E45102014623000E83B0010E4527000E462380A802D081B8AED14D820001826B9B
:40678000260E816F79EC4AF00001826B1F0E816F79EC4AF045C2C8F046C2C9F060EC52F09AD1000E0001D96BD86B81EC49F00001E16F040EE15D26E24D82826B1F0E816F35
:4067C00079EC4AF00201B851020A0DE10001826B320E816F79EC4AF00001826B330E816F79EC4AF006D00001826B210E816F79EC4AF0D0C2D4F0D1C2D5F0D2C2D6F0C4EC3F
:406800005CF069D1000ED96BD86BDBEC56F0090A0EE04D820001826B260E816F79EC4AF00001826B1F0E816F79EC4AF054D1020E0001DC6FEB0EDB6F010EA6EC3EF00C0A5C
:4068400033E0EBC26EF0ECC26FF018EC6DF0CAEC32F07FEC68F00EE3786B8DD918EC6DF06EC07BF06FC07CF070C07DF07FEC68F001E331D14D820001826B1E0E816F79EC9E
:406880004AF00001826B1F0E816F79EC4AF0EBC266F0ECC267F0E5EC6DF066C0C8F067C0C9F060EC52F017D1020E0001D96FEB0ED86F010E95EC51F0130A01E00CD1EBC298
:4068C0006EF0ECC26FF018EC6DF06EC078F06FC079F070C07AF07B6BAF0E7C6FC30E7D6F7FEC68F00EE3786B46D918EC6DF06EC07BF06FC07CF070C07DF07FEC68F001E32A
:40690000EAD04D820001826B260E816F79EC4AF00001826B1F0E816F79EC4AF0EBC266F0ECC267F0E5EC6DF066C0C8F067C0C9F060EC52F0D0D005EC42F087EC5FF0020E5C
:4069400026EC4EF0010E26EC4EF0010E0001676FF40E666F89EC6BF0010EFCEC6CF0030E26EC4EF002017B51010B0001E16FE1314D90D8B04D8074D00001826B250E816F62
:4069800079EC4AF002017BB107D00001826B2B0E816F79EC4AF006D00001826B2A0E816F79EC4AF002017BB125D02ED0996B33D0060E49EC6CF00001826B250E816F79ECAD
:4069C0004AF00001826B1F0E816F79EC4AF0D6C269F0D7C26AF0D8C26BF0CBEC6BF069C0D4F06AC0D5F06BC0D6F0C4EC5CF000014D8211D0C10EF66EA6D883EC47F00F0ADE
:406A0000D7E01F0AD3E007D0C10EF66E9CD883EC47F0110AECE1010EFCEC6CF0010ED8EC68F007D0030E26EC4EF0170EE9EC4FF0030002017B51010B0001E16F000E4DB08E
:406A4000010EE11903E102017BAFECD702017BBF06D07BA102D04D8485D74D8683D74D8202017BBF03D04DB64DA486D700014DA21CD00001826B250E816F79EC4AF0000121
:406A8000826B1F0E816F79EC4AF0D6C269F0D7C26AF0D8C26BF0CBEC6BF069C0D4F06AC0D5F06BC0D6F0C4EC5CF0000EFCEC6CF0AEEC32F087EC5FF0000E26EC4EF00BD070
:406AC00002019951010A01E16CD6050A01E133D70D0A01E117D60201992B050E996102D04DA2EED700014DB20AD00001C16B1C0EC06FA50EC36FC26F67EC6BF01BD0020E20
:406B0000D8EC68F0C16B1C0EC06FFF0EC369C26967EC6BF0010EFCEC6CF004D00E0EE9EC4FF0030081B880A803D002017BAFF6D780EF0CF0000EFCEC6CF0000ECAEC6EF03B
:406B4000020ED8EF68F01B0EF76E000EF86E0900F5CFE1F00900F5CFE2F00900F5CFE3F0E1C0D8F0E2C0D9F0E3C0DAF00001DB6BDD6BDC6B000CAF0E796F430E7A6FEBC258
:406B80006EF0ECC26FF0430C010E676F020EF0EC64F0030E676F200E666F89EC6BF01B0E0001DC6FB50EDB6FDBC07EF0DCC07FF0DBEC66F0A8EC6EF002017D6F7E6B7D51F1
:406BC000060A7E1102E0ADEF6FF0A8EC6EF07D6F7E6B7D51D00F0001D86F456AAB0EDAEC6AF093D0060EEAEC6EF002014B6B4C6B060EEAEC6EF002014B510001CE6FFDD9BF
:406C0000E4D9B6EC6AF002014B4B4C2B080E4B5D000E4C59EDE30001676B1B0E666FFCEC69F0D6EC32F0D8B4661903E1200ED6EC58F00001F7D967EC6BF00001EDD967EC94
:406C40006BF0010E02012DD0060EEAEC6EF000016B6B6C6B6D6B6E6B520EB6EC6AF0DCD967EC6BF0EED7060EEAEC6EF000DAB6EC6AF002014C6B080E4B6F060EEAEC6EF08F
:406C800002014B510001CE6FB8D99FD9B6EC6AF002014B4B4C2B100E4B5D000E4C59EDE3020EB86F3FD0060EEAEC6EF000016B6B6C6B6D6B6E6BC70EB6EC6AF0B3D967ECFC
:406CC0006BF00001A9D967EC6BF00201B86B2AD0060EEAEC6EF0CBD9B6EC6AF09DD967EC6BF0AFD7060EEAEC6EF000016B6B6C6B6D6B6E6BC70EB6EC6AF094D967EC6BF0C3
:406D000000018AD967EC6BF00DD00001D85101E169D7010A99E0030AA6E0010AC4E0070AD7E0E0D70001DA6B020ED96F1B0EDC6FB50EDB6FD76B02017F6B806B15D939D0A3
:406D4000DBC07EF0DCC07FF0DBEC66F0010E0001676F000E666B21EC6BF082D9D8B4DA2906E16DD9DBEC66F00001D72B22D0DA51D91105E11B0EDC6F730EDB6F1AD0D9058A
:406D8000DA11F8E0010E0001686F000E676BD9C069F0DAC06AF02EEC64F0010E00016C6F000E6B6BB0EC64F01B0EDC6FB50EDB6F4FD9000162D9D8B4D95D03E3090ED76556
:406DC000BFD7D851040A18E11B0EDC6FAB0EDB6FDBC07EF0DCC07FF0DBEC66F0DBC07EF0DCC07FF0DBEC66F0000122D967EC6BF002017C85ADEF6FF0D851020A05E102012D
:406E00007E6B320E7D6F03D002017D6B7E6B7D516DEC5BF0A9D80001DA6B020E3DD0DBC07EF0DCC07FF0DBEC66F0010E0001676F000E666B21EC6BF013D9D8B4DA2907E17F
:406E40001B0EDC6FB90EDB6F0001D72B42D0DA51D91104E11B0EDC6FAB0E2ED0D905DA1104E11B0EDC6F730E27D0010E0001686F000E676B2AEC53F0D66F24D002017D4B95
:406E80007E2B7D516DEC5BF06FD81B0E0001DC6F730EDB6FDA6B100ED96F1BD0010E00016C6F000E6B6BB0EC64F0FEEC6AF0D0D81B0E0001DC6FB50EDB6F0BD0C0D8DBEC33
:406EC00066F0C2D7D651DAE0030ABAE0130AE6E0F5D7D3D8D8B4D95D03E3090ED7659FD7AB0ECE6F1B0ECF6FCF51DC1902E1CE51DB190AE0730ECE6F1B0ECF6FCF51DC19C4
:406F000002E1CE51DB1924E1D8050DE1C16B1B0EC06FA50EC36FC26F67EC6BF0000182D867EC6BF012D0D8670DD0C16B1B0EC06FFF0EC369C26967EC6BF0000179D867EC01
:406F40006BF003D0D851030AF0E002017C8504D01B0EDC6FBD0EDB6FDBC07EF0DCC07FF0DBEC66F0ADEF6FF07F510001CE6F020180510001CF6FD06BD16BD0C0D1F0CFC0D8
:406F8000D0F0CEC0CFF0CE6B45C0D2F0D36BD46BD56B140ED890D237D337D437D537E82EF9D7CE51D2250301006F0001CF51D3210301016F0001D051D4210301026F0001CE
:406FC000D151D5210301036F1200D36BD46BD56B140ED890D237D337D437D537E82EF9D7CE51D2256B6FCF51D3216C6FD051D4216D6FD151D5216E6FD80C02014C5100014F
:40700000CF6FD06BD16BCFC0D1F0CEC0D0F0CF6BCE6B45C0D2F01200C16B1B0EC06FC369C269FF0CC16B1A0EC06FC369C269FF0CC16B1A0EC06FA50EC36FC26FA50C1B0E73
:40704000DC6FB90EDB6FDBC07EF0DCC07FF01200800E03010027000E012302230323000C000166C0D9F067C0DAF0D929120000016B6B6C6B6D6B6E6B200CDA51800A800F88
:40708000020CE8CFEAF001D003000001F351FCE0F305FAE0F29EF351020A04E0F351030A01E0EAD1B9C2E9F00201B96BE5D1F351020A1AE10201B851020A07E10001826B4F
:4070C000320E816F79EC4AF006D00001826B210E816F79EC4AF00001826B1F0E816F79EC4AF002017B8DFAD1F351030A01E0F6D10201B851020A07E10001826B320E816FA8
:4071000079EC4AF006D00001826B210E816F79EC4AF00001826B1F0E816F79EC4AF00001826B280E816F79EC4AF0B2EC6FF002017B8D7C9FD3D1F351020A0BE102017B8DC3
:407140002CC2D2F02DC2D3F02EC2D4F0ECEC53F0C8D7F351030A01E0C1D1826B270E816F79EC4AF00001826B2C0E816F79EC4AF00001826B280E816F79EC4AF0D8D7F3516D
:40718000020A21E1676B1A0E666FFCEC69F0D6EC32F0D8B4661906E1826B1F0E816F79EC4AF09CD1676B160E666FFCEC69F0D6EC32F0D8B4661901E091D1000E826B816BA0
:4071C00079EC4AF08BD1F351030A01E087D16CD0F351030A01E124D1F351020A01E07ED1676B1A0E666FFCEC69F0D6EC32F0D8B46619D2E0676B1B0E666FFCEC69F0D6ECA2
:4072000032F0D8B46619D9E069D1F351030A4CE0F351020A01E062D1826B300E816F79EC4AF05CD1F351030A3FE0F351020A01E055D1826B300E816F79EC4AF0110E8ED068
:40724000F351020A0CE1826B250E816F79EC4AF00001826B300E816F79EC4AF03FD1F351030A24E1C06B980EC16F410EC26F87EC5FF00001826B250E816F79EC4AF000010D
:40728000826B300E816F79EC4AF00001826B280E816F79EC4AF0010E0001676F000EF0EC64F0D8B01DEC12F0FF0018D1442A030E446414D1446A12D1826B260E816F79ECAF
:4072C0004AF00001826B2A0E816F79EC4AF00D0E45D0826B2E0E816F79EC4AF00001826B300E816F79EC4AF0F9D0F351020A94E0F351030ADBE1826B300E816F79EC4AF0A8
:407300000001826B280E816F79EC4AF0010ECAEC6EF0190E0201B46FAC5181EC67F0DED0F351050AC3E0F351030A08E10201B96B446A010E6FEC64F00B0E10D0040E0ED00F
:40734000F351020A04E1010E0201B36FC7D0F351050AACE0070E49EC6CF00A0E020127D0F351020A04E1010E30EC65F0B7D0F351050A9CE0070E49EC6CF0EFD7F351020AAF
:4073800004E1010E30EC65F0A9D0F351050A8EE0070E49EC6CF0E1D7F351020A0AE15DEC40F001E29BD002017CA1C8D7080EB46F95D0F351050A01E179D7070E49EC6CF046
:4073C000CCD7F351020A26E10B0E0201B16106D0B15188EC48F00201B12B80D05DEC40F07DE3DAEC32F087EC5FF0050E0001676FDC0E666F89EC6BF05DEC40F006E3000153
:40740000826B230E816F79EC4AF0AEEC32F087EC5FF064D0F351030A61E18CD867EC6BF080EF0CF05BD0230E2BEC66F057D01CEC68F0000E0001676BF0EC64F04FE3030E39
:407440000001826F100E816F03EC69F0000908E10201AD6B1DEC12F0010EFCEC6CF041D65BEC6FF03BD0F351020ADDE0010ADFE0060A01E11BD732D00001EA51040A01E1A8
:407480005FD7010A01E14CD7020A01E169D70F0A01E174D7010A80E0070A01E10DD71F0A01E117D7030A01E120D7010A01E167D6050A01E18DD6010A01E1A7D60F0A01E10E
:4074C000B1D6010A01E1BCD6020A01E134D6070A01E1EDD5010A01E174D7C5D70001F351050A1EE1EA51110A0CE11AD00201B96B10D0010E03D0030E01D00E0E0201B96F73
:4075000008D04450F3E0010AF4E0030AF4E0010AF4E00001826B310E816F79EC4AF005D0EA51110AD8A4E9C0B9F2010EFCEC6CF0F28E1200C16B1D0EC06FC369C269FF0CE9
:40754000E8CFC7F0C7510201F46326D0B551BF6323D00001C0510201F5631ED00001C3510201F21909E10001C2510201F11904E10001C1510201F0190FE10001C651020182
:40758000EF1909E10001C5510201EE1904E10001C4510201ED1951E0C7C0F4F2C1C0F0F2C2C0F1F2C3C0F2F2C4C0EDF2C5C0EEF2C6C0EFF2B5C2BFF2C0C0F5F2C1C0B1F007
:4075C000C2C0B2F0C3C0B3F0D7EC5EF0B1510F01446FC4C0B1F0C5C0B2F0C6C0B3F0D7EC5EF0B1510F01476F0201E56BA00EE66F410EE76F4F940001C70506E0C751030A67
:4076000003E0C751040A05E18B840C0E0F01436F02D00F01436B0001C751020A06E0C751030A03E0C751040A05E18D8E0C0E0F01466F83D10F01466B80D18B948D9E7DD1C9
:407640000F01465102E0466B12000C0E466F0C0C0F01435102E0436B12000C0E436F0C0C0F01465104E00F01466B436B12000C0E466FF3D70F014651F6E1F9D7C751010A97
:40768000E7E0030ADDE0010AEBE0070AF3E0EBD70F0143510C0A02E1436BD7D7466BDDD78D9E8B9420D00C0E0F01466F0001676B320E666F89EC6BF0C6D70C0E0F01436F15
:4076C0000001676B320E666F89EC6BF0C4D70C0E0F01466F436F0001676B320E666F89EC6BF0466BB8D7C751010AE7E0030ADBE0010AEDE0070AEBE0B6D70F01436B466B4C
:4077000012004FA417D0020E3BD93F0EB56F67EC6CF0E5C278F0E6C279F0E7C27AF07B6BA00E7C6F410E7D6F7FEC68F001E2CED04F94CCD0020E24D9BF0EB56F67EC6CF0BC
:40774000000E786B796B7A6BE5C27BF0E6C27CF0E7C27DF07FEC68F001E2B8D04F84B6D07B6B7C6B400E7D6FE5C2A3F0E6C2A4F0E7C2A5F0C4C0A0F0C5C0A1F0C6C0A2F08F
:4077800067EC55F0A0C078F0A1C079F0A2C07AF0E2EC5BF078C0B1F079C0B2F07AC0B3F0D7EC5EF0B1510F01476F12007B6B7C6B400E7D6FE5C292F0E6C293F0E7C294F0B6
:4077C000C1C08FF0C2C090F0C3C091F078EC5AF08FC078F090C079F091C07AF0E2EC5BF078C0B1F079C0B2F07AC0B3F0D7EC5EF0B1510F01446F1200B6D8CDEC6DF072C042
:40780000F6F273C0F7F274C0F8F2926BF00E936F410E946FF6C28FF0F7C290F0F8C291F078EC5AF08FC0A0F090C0A1F091C0A2F0A36B800EA46F3F0EA56F67EC55F0A0C0D3
:40784000F6F2A1C0F7F2A2C0F8F2F6C278F0F7C279F0F8C27AF07B6B800E7C6F3F0E7D6F7FEC68F006E20201F66B800EF76F3F0EF86FF6C2A3F0F7C2A4F0F8C2A5F00001ED
:407880007B6B7C6B400E7D6FE5C278F0E6C279F0E7C27AF0E2EC5BF078C0A0F079C0A1F07AC0A2F067EC55F0A0C0B1F0A1C0B2F0A2C0B3F0D7EC5EF0B1510F01446F250E6D
:4078C000476F250C0F01446B476B12000001C751010A01E16BD7030A01E142D7010A8CE0F1D741D8CDEC6DF072C0F6F273C0F7F274C0F8F20201F851800A800F05E1000EB3
:40790000F75D02E1000EF65D03E2F66BF76BF86B020E0001A16FF60EA06FA26BF00EA36F410EA46F85EC6CF0F6C2B1F0F7C2B2F0F8C2B3F0D7EC5EF0BFD70001C05101E178
:40794000DCD6080ACEE0010AD8B41200030A01E195D6010A01E1A4D6060A01E1D2D6030AD8A4120095D6660E726F860E736F400E746FD0C275F0D1C276F0D2C277F0400C58
:407980000001B26FE50EB16FB36B800EB46F800C040EF5EC5AF0050EF5EC5AF0010E0001666F0A0E0FEC6EF0010E0001666F0D0E0FEC6EF0350E0001666F2A0E0FEC6EF063
:4079C000010E0001666F0A0E0FEC6EF0010E0001666F0D0E0FEC6EF00A0E0001666F2A0E0FEC6EF01C0E00017F6F4D0E7E6FDBEC66F0010E0001666F0A0E0FEC6EF0010E76
:407A00000001666F0D0E0FEC6EF0350E0001666F2A0E0FEC6EF0010E0001666F0A0E0FEC6EF0010E0001666F0D0E0FEC6EF0200E00017F6F5D0E7E6FDBEC66F0010E000101
:407A4000666F0A0E0FEC6EF0010E0001666F0D0E0FEC6EF01F0E00017F6F660E7E6FDBEC66F0010E0001666F0A0E0FEC6EF0010E0001666F0D0E0FEC6EF0200E00017F6F01
:407A8000A10E7E6FDBEC66F0010E0001666F0A0E0FEC6EF0010E0001666F0D0E0FEC6EF01F0E00017F6F160E7E6FDBEC66F0010E0001666F0A0E0FEC6EF0010E0001666FD9
:407AC0000D0E0FEC6EF0220E00017F6F810E7E6FDBEC66F0010E0001666F0A0E0FEC6EF0010E0001666F0D0E0FEC6EF0210E00017F6F8E0E7E6FDBEC66F0010E0001666F02
:407B00000A0E0FEC6EF0010E0001666F0D0E0FEC6EF0210E00017F6FE40E7E6FDBEC66F0010E0001666F0A0E0FEC6EF0010E0001666F0D0E0FEC6EF01E0E00017F6F340E55
:407B40007E6FDBEC66F0010E0001666F0A0E0FEC6EF0010E0001666F0D0E0FEC6EF01D0E00017F6F590E7E6FDBEC66F0010E0001666F0A0E0FEC6EF0010E0001666F0D0E6B
:407B80000FEC6EF01D0E00017F6FD90E7E6FDBEC66F0010E0001666F0A0E0FEC6EF0010E0001666F0D0E0FEC6EF01E0E00017F6F6F0E7E6FDBEC66F0010E0001666F0A0E13
:407BC0000FEC6EF0010E0001666F0D0E0FEC6EF01F0E00017F6F310E7E6FDBEC66F0010E0001666F0A0E0FEC6EF0010E0001666F0D0E0FEC6EF01E0E00017F6FA80E7E6F01
:407C0000DBEC66F0010E0001666F0A0E0FEC6EF0010E0001666F0D0E0FEC6EF01E0E00017F6FC40E7E6FDBEC66F0010E0001666F0A0E0FEC6EF0010E0001666F0D0E0FEC30
:407C40006EF01B0E00017F6FF40E7E6FDBEC66F0010E0001666F0A0E0FEC6EF0010E0001666F0D0E0FEC6EF0200E00017F6FCC0E7E6FDBEC66F0010E0001666F0A0E0FECDA
:407C80006EF0010E0001666F0D0E0FEC6EF01E0E00017F6FFB0E7E6FDBEC66F0010E0001666F0A0E0FEC6EF0010E0001666F0D0E0FEC6EF01F0E00017F6FE40E7E6FDBEC6E
:407CC00066F0010E0001666F0A0E0FEC6EF0010E0001666F0D0E0FEC6EF0200E00017F6F450E7E6FDBEC66F0010E0001666F0A0E0FEC6EF0010E0001666F0D0E0FEC6EF056
:407D0000210E00017F6F1E0E7E6FDBEC66F0010E0001666F0A0E0FEC6EF0010E0001666F0D0E0FEC6EF0210E00017F6F0A0E7E6FDBEC66F0010E0001666F0A0E0FEC6EF0AA
:407D4000010E0001666F0D0E0FEF6EF0E8CFDDF08D820001676B0A0E666F89EC6BF0070E3BEC58F0CAC01AF2CBC01BF2CCC01CF28D92DD5101E19DD0CDC2A0F0CEC2A1F05C
:407D8000CFC2A2F0930EA36F8A0EA46F430EA56F67EC55F0A0C0DCF2A1C0DDF2A2C0DEF280D9E2EC5BF078C0C4F279C0C5F27AC0C6F2020E0001796FC40E786FCF0E7A6FFB
:407DC0005B0E7B6F3B0E7C6FA3EC6CF0020E0001A16FC40EA06FA00EA26F8C0EA36F450EA46F85EC6CF0C4C2D2F0C5C2D3F0C6C2D4F0C2EC50F0D2C0C4F2D3C0C5F2D4C07F
:407E0000C6F29A0EA36F990EA46F3F0EA56FC4C2A0F0C5C2A1F0C6C2A2F067EC55F0A0C07BF0A1C07CF0A2C07DF0926B800E936F450E946FC4C28FF0C5C290F0C6C291F076
:407E400078EC5AF08FC078F090C079F091C07AF0E2EC5BF078C0DEF079C0DFF07AC0E0F0DEC072F0DFC073F0E0C074F01AC275F01BC276F01CC277F0CDEC6DF072C020F2CF
:407E800073C021F274C022F220C2B1F021C2B2F022C2B3F0D7EC5EF0B1C077F2B2C078F2C16B160EC06F77C2C2F078C2C3F067EC6BF0DBC0D9FFDCC0DAFF77C2DEFF78C2A1
:407EC000DDFF00017B6B800E7C6F450E7D6F1AC2A3F01BC2A4F01CC2A5F077C26EF078C26FF018EC6DF06EC0A0F06FC0A1F070C0A2F067EC55F0A0C078F0A1C079F0A2C057
:407F00007AF0E2EC5BF078C08FF079C090F07AC091F0D0C292F0D1C293F0D2C294F078EC5AF08FC01DF290C01EF291C01FF21DC275F01EC276F01FC277F0D0C272F0D1C22A
:407F400073F0D2C274F0CDEC6DF072C078F073C079F074C07AF09A0E7B6F990E7C6F3F0E7D6FE2EC5BF078C020F279C021F27AC022F21DC278F01EC279F01FC27AF020C2A5
:407F80007BF021C27CF022C27DF0E2EC5BF078C0C4F279C0C5F27AC0C6F2C4C2C0F0C5C2C1F0C6C2C2F0F7EC59F0C0C0DCF2C1C0DDF2C2C0DEF2020E0001906FDC0E8F6F11
:407FC000A00E916F8C0E926F450E936FC1EC6CF0020E0001B26FDC0EB16FCF0EB36F5B0EB46F3B0EB56F67EC6CF05BD8E2EC5BF078C0DCF279C0DDF27AC0DEF2020E000182
:40800000796FDC0E786F930E7A6F880E7B6F430E7C6FA3EC6CF0020E0001796FDC0E786F7A6B800E7B6F400E7C6FA3EC6CF00A0E02012DD8340E7C6F420E7D6F7FEC68F0BF
:4080400023E20B0E020123D8200E7C6F420E7D6F7FEC68F019E20C0E0201B66FDE51800A800F05E1000EDD5D02E1000EDC5D0CE20D0E0DD8A00E7C6FC10E7D6F7FEC68F0EA
:4080800003E20E0E0201B66F0201B6511200B66FDCC278F0DDC279F0DEC27AF000017B6B1200786B800E796F3F0E7A6FDCC27BF0DDC27CF0DEC27DF03F0C4D880201A16B66
:4080C000B9C2A0F2B96B92D1010E49EC6CF00201B96BB851020A07E10001826B320E816F79EC4AF006D00001826B210E816F79EC4AF00001826B220E816F79EC4AF000013B
:40810000826B1F0E816F79EC4AF04D986DD17DD987EC5FF0020E49EC6CF00001826B1F0E816F79EC4AF00201B851020A0DE10001826B320E816F79EC4AF00001826B330E1E
:40814000816F79EC4AF0E1D70001826B210E816F79EC4AF0DAD77CA12BD07B857BBB44D17B8BB851020A06E10001826B360E816F79EC4AF00001826B2C0E816F79EC4AF07E
:408180000201B851020A0DE10001826B320E816F79EC4AF00001826B330E816F79EC4AF023D10001826B210E816F79EC4AF01CD12CD987EC5FF0030E49EC6CF00001826B5A
:4081C0001F0E816F79EC4AF0AED71FD987EC5FF0020E49EC6CF00001826B260E816F79EC4AF00001826BFF0E816979EC4AF00B0E0201B46F8AD77B95F7D0000E0001D96BE4
:40820000D86B81EC49F0010AE0E0030A80E0010AA2E0050A01E158D7EED7000E0001D96BD86BDBEC56F0090A01E1DED0EED887EC5FF0040E49EC6CF00001826B260E816F28
:4082400079EC4AF00001826B1F0E816F79EC4AF05CD7DBD887EC5FF0050E49EC6CF00001676B780E666F010EDCEC62F00001826B1E0E816F79EC4AF0E5D77B877CB17BB94A
:40828000B3D07B89B851020A06E10001826B360E816F79EC4AF00001826B1E0E816F79EC4AF00001826B2C0E816F79EC4AF09CD07CA120D07B877BB997D07B89B851020AEB
:4082C00006E10001826B360E816F79EC4AF00001826B2C0E816F79EC4AF00001826B1E0E816F79EC4AF00001826B220E816F79EC4AF07AD08AD887EC5FF0050E49EC6CF0B7
:408300000001676B780E666F010EDCEC62F00001826B1F0E816F79EC4AF00001826B1E0E816F79EC4AF00001826B220E816F79EC4AF0EBD66AD887EC5FF0050E49EC6CF07D
:408340000001676B780E666F010EDCEC62F0DFD77B974AD0000E0001DC6BDB6BA6EC3EF00A0AE8E0010AA4E0060A87E0030A01E170D7EED7A16B38D048D887EC5FF0060E81
:4083800049EC6CF00001826B250E816F79EC4AF059D7C10EF66E1B0EF76E000EF86E0900F5CFE1F00900F5CFE2F00900F5CFE3F0E1C0D8F0E2C0D9F0E3C0DAF0000E0001EA
:4083C000DB6BDD6BDC6B83EC47F00F0AD5E01F0AD1E00AD0A15101E110D7010A01E11DD7030AD7E0010AB6E00201A12B4DA804D0030E0201A165EED7A0C2B9F200014DB8F5
:4084000002D0D8901200D88012000001C06BA80EC16F410EC26F410C9EA201D001D006D09DA201D001D002D09E929ED1F2AA01D001D00AD0F2A401D001D006D0F294F29A65
:40844000D56A02017C8B90D1F0A001D001D007D0F0A601D001D003D0F096F09085D19EAA01D001D00AD09DAA01D001D006D09D9A9E9AD56A02017C8377D1F0A201D001D033
:4084800018D0F0A801D001D014D0F092F098E00EB36E000EB26E9E0EB16EA192B180A082F094F08A0001F36B02017B8F00014F925BD1F0A401D001D029D0F0AA01D001D03B
:4084C00025D0F0940001F36701D001D017D000014FA201D001D008D0F09AB190A092A192050E0001F36F40D1E00EB36E000EB26E9E0EB16EB18000014F8236D1F09AB1901F
:40850000A092A192020E0001F36F2ED1A1A201D001D026D0A0A201D001D022D0A1920001F36701D001D016D000014FB201D001D00BD0400EB36E000EB26E9E0EB16EB18085
:40854000010E0001F36F10D1F09AF094B190A092A192D8D7B190A092F09A030EF36F04D1BAA801D001D000D1B9A801D001D0FCD0B998BA98140EC26EC150CF0B2009C16E24
:408580009BAC01D001D005D0C050F80B0509C06E04D0C050F80B0409C06EC050C70B1009C06EC2800201876B886B896B8A6B000E8C6F010E8B6F000E0D6E000E0E6E410EDC
:4085C0000F6E8BC216F08CC217F084EC6EF016C010F017C011F018C012F0ACEC68F0D8B001D001D001D060D0BA98BAA801D001D0FCD79BAC01D001D005D0FA0E00F0E82EF0
:40860000FDD704D0530EE82EFED700F0C282C2B201D001D0FCD7C35002018727C45088239BAC01D001D00AD0040E0001656FE40EE82EFED7652FFCD700F003D0FA0EE82ED7
:40864000FED702018D6B8E6B7D0E8D5D000E8E59D8A001D001D001D003D08D4B8E2BF4D7C282C2B201D001D0FCD7C35002018927C4508A238B4B8C2B000E0D6E000E0E6E59
:40868000410E0F6E8BC216F08CC217F084EC6EF016C010F017C011F018C012F0ACEC68F0D8B001D001D0A0D70F01366BC290000E1C6E000E1D6E410E1E6E87C216F088C2B7
:4086C00017F084EC6EF016C019F017C01AF018C01BF0A3EC5DF019C02AF01AC02BF01BC02CF03EC00DF03FC00EF04FEC6DF00DC02DF00EC02EF00FC02FF022EC56F02AC0B5
:4087000033F02BC034F02CC035F0000E1C6E000E1D6E410E1E6E89C216F08AC217F084EC6EF016C019F017C01AF018C01BF0A3EC5DF019C02AF01AC02BF01BC02CF03EC01C
:408740000DF03FC00EF04FEC6DF00DC02DF00EC02EF00FC02FF022EC56F02AC029F22BC02AF22CC02BF200D01100CC510AE0CC51D96EDA6ACAC0DEFFCBC0DDFF02D0CA4BF5
:40878000CB2BCAC0D9FFCBC0DAFFDF50CF6F0001CF5172EC6EF0F3E2CE6BCF512D0A05E1010ECE6FCA4BCB2B03D0CF512B0AFAE0CF6BD16BD26BD36BD46BD06BCEB909D044
:4087C0002E0ECAC0D9FFCBC0DAFFDF6202D0CE8935D0CAC0D9FFCBC0DAFFDF500AEC6FF030E3CE83CF51080A27E0CEB9D007CF2BD1C066F0D2C067F0D3C068F0D4C069F021
:408800000A0E6A6F000E6B6B6C6B6D6B22EC6AF066C0D1F067C0D2F068C0D3F069C0D4F0CAC0D9FFCBC0DAFFDF50D00FD127000ED223D323D42302D0CEA9D02BCA4BCB2B99
:40884000BDD7CF6BCAC0D9FFCBC0DAFFDF50650A07E0450ECAC0D9FFCBC0DAFFDF6242D02D0ECA4BCB2BCAC0D9FFCBC0DAFFDF6202D0CE8707D02B0ECAC0D9FFCBC0DAFF29
:40888000DF6202D0CA4BCB2BCAC0D9FFCBC0DAFFDF50300AF7E0CAC0D9FFCBC0DAFFDF500AEC6FF01DE3CAC0D9FFCBC0DAFFDF50D00FCF6FCA4BCB2BCAC0D9FFCBC0DAFF67
:4088C000DF500AEC6FF00CE3C5D8CA4BCB2BCAC0D9FFCBC0DAFFDF500AEC6FF001E3BAD8CEB7CF6DCF51D027CC51D8A4CEA307D0CC51D96EDA6ACAC0DEFFCBC0DDFFD1C0DD
:40890000C0F0D2C0C1F0D3C0C2F0D4C0C3F0E9EC67F0C0C0D1F0C1C0D2F0C2C0D3F07F0ED315D211D11104E1CA6BCB6BCC6B1200D0AF3CD0D06D0ED0000E906FD10E8F6F60
:40894000030E916F150E926F500E936FC1EC6CF0F60ED027D051800A760F0DE3EDD7000E906FD10E8F6F916B200E926F410E936FC1EC6CF0D007D067F2D7D1C078F0D2C0A9
:4089800079F0D3C07AF07B6B800E7C6F000E7D6B7FEC68F048E2CEA102D0000E68D8000ECA6F800ECB6F000ECC6F000CD051800A7F0F0FE238D0000EA16FD10EA06F030ECD
:4089C000A26F150EA36F500EA46F85EC6CF0F60ED0270A0ED061EFD70CD0000EA16FD10EA06FA26B200EA36F410EA46F85EC6CF0D007D067F2D778697F0E796F7A6FD1C0DE
:408A00007BF0D2C07CF0D3C07DF07FEC68F00BE2CEA102D0000E2BD8000ECA6F800ECB6F000ECC6F000CCEA10ED0D1C066F0D2C067F0D3C068F028EC6FF066C0D1F067C0DE
:408A4000D2F068C0D3F0D1C0CAF0D2C0CBF0D3C0CCF01200CAC0D9FFCBC0DAFFDF50CD6FCF510A0DF350CD25D00FCF6F1200CA6F800ECB6FCC6F800C00014D8E040EF5ECED
:408A80005AF0050EF5EC5AF0210E00017F6FC20E7E6FDBEC66F0DFC066F0E0C067F0AAEC6BF0020AD8B480EF0CF00001DFC0D9FFE0C0DAFFDF4BE02BDF50620A01E04D9EC9
:408AC00010D9770A01E04D9E0CD9610A01E04D9E08D9720A01E04D9E04D9650A01E04D9E00D92A0A01E04D9EFCD84C0A01E04D9EF8D8480A01E04D9EF4D8380A01E04D9E4C
:408B0000F0D8300A02E000014D9E040EF5EC5AF0050EF5EC5AF000014DAE12000001E26B280EE36F410EE46F926B936B400E946FA36BC00EA46FA56FE2C0A0F0E3C0A1F0AF
